{
  "address": "0x312A8E33d78d3Ab79E62971E86e5e8c9c5E28D64",
  "abi": [
    {
      "inputs": [
        {
          "internalType": "contract IBentoBoxMinimal",
          "name": "_bentoBox",
          "type": "address"
        },
        {
          "internalType": "address",
          "name": "_wETH",
          "type": "address"
        }
      ],
      "stateMutability": "nonpayable",
      "type": "constructor"
    },
    {
      "inputs": [],
      "name": "InsufficientShares",
      "type": "error"
    },
    {
      "inputs": [],
      "name": "InvalidStart",
      "type": "error"
    },
    {
      "inputs": [],
      "name": "InvalidStepSetting",
      "type": "error"
    },
    {
      "inputs": [],
      "name": "NotOwner",
      "type": "error"
    },
    {
      "inputs": [],
      "name": "NotVestReceiver",
      "type": "error"
    },
    {
      "anonymous": false,
      "inputs": [
        {
          "indexed": true,
          "internalType": "address",
          "name": "owner",
          "type": "address"
        },
        {
          "indexed": true,
          "internalType": "address",
          "name": "spender",
          "type": "address"
        },
        {
          "indexed": true,
          "internalType": "uint256",
          "name": "id",
          "type": "uint256"
        }
      ],
      "name": "Approval",
      "type": "event"
    },
    {
      "anonymous": false,
      "inputs": [
        {
          "indexed": true,
          "internalType": "address",
          "name": "owner",
          "type": "address"
        },
        {
          "indexed": true,
          "internalType": "address",
          "name": "operator",
          "type": "address"
        },
        {
          "indexed": false,
          "internalType": "bool",
          "name": "approved",
          "type": "bool"
        }
      ],
      "name": "ApprovalForAll",
      "type": "event"
    },
    {
      "anonymous": false,
      "inputs": [
        {
          "indexed": true,
          "internalType": "uint256",
          "name": "vestId",
          "type": "uint256"
        },
        {
          "indexed": true,
          "internalType": "uint256",
          "name": "ownerAmount",
          "type": "uint256"
        },
        {
          "indexed": true,
          "internalType": "uint256",
          "name": "recipientAmount",
          "type": "uint256"
        },
        {
          "indexed": false,
          "internalType": "contract IERC20",
          "name": "token",
          "type": "address"
        },
        {
          "indexed": false,
          "internalType": "bool",
          "name": "toBentoBox",
          "type": "bool"
        }
      ],
      "name": "CancelVesting",
      "type": "event"
    },
    {
      "anonymous": false,
      "inputs": [
        {
          "indexed": true,
          "internalType": "uint256",
          "name": "vestId",
          "type": "uint256"
        },
        {
          "indexed": false,
          "internalType": "contract IERC20",
          "name": "token",
          "type": "address"
        },
        {
          "indexed": true,
          "internalType": "address",
          "name": "owner",
          "type": "address"
        },
        {
          "indexed": true,
          "internalType": "address",
          "name": "recipient",
          "type": "address"
        },
        {
          "indexed": false,
          "internalType": "uint32",
          "name": "start",
          "type": "uint32"
        },
        {
          "indexed": false,
          "internalType": "uint32",
          "name": "cliffDuration",
          "type": "uint32"
        },
        {
          "indexed": false,
          "internalType": "uint32",
          "name": "stepDuration",
          "type": "uint32"
        },
        {
          "indexed": false,
          "internalType": "uint32",
          "name": "steps",
          "type": "uint32"
        },
        {
          "indexed": false,
          "internalType": "uint128",
          "name": "cliffShares",
          "type": "uint128"
        },
        {
          "indexed": false,
          "internalType": "uint128",
          "name": "stepShares",
          "type": "uint128"
        },
        {
          "indexed": false,
          "internalType": "bool",
          "name": "fromBentoBox",
          "type": "bool"
        }
      ],
      "name": "CreateVesting",
      "type": "event"
    },
    {
      "anonymous": false,
      "inputs": [
        {
          "indexed": true,
          "internalType": "uint256",
          "name": "vestId",
          "type": "uint256"
        },
        {
          "indexed": true,
          "internalType": "address",
          "name": "newOwner",
          "type": "address"
        }
      ],
      "name": "LogUpdateOwner",
      "type": "event"
    },
    {
      "anonymous": false,
      "inputs": [
        {
          "indexed": true,
          "internalType": "address",
          "name": "previousOwner",
          "type": "address"
        },
        {
          "indexed": true,
          "internalType": "address",
          "name": "newOwner",
          "type": "address"
        }
      ],
      "name": "OwnershipTransferred",
      "type": "event"
    },
    {
      "anonymous": false,
      "inputs": [
        {
          "indexed": true,
          "internalType": "address",
          "name": "from",
          "type": "address"
        },
        {
          "indexed": true,
          "internalType": "address",
          "name": "to",
          "type": "address"
        },
        {
          "indexed": true,
          "internalType": "uint256",
          "name": "id",
          "type": "uint256"
        }
      ],
      "name": "Transfer",
      "type": "event"
    },
    {
      "anonymous": false,
      "inputs": [
        {
          "indexed": true,
          "internalType": "uint256",
          "name": "vestId",
          "type": "uint256"
        },
        {
          "indexed": true,
          "internalType": "contract IERC20",
          "name": "token",
          "type": "address"
        },
        {
          "indexed": true,
          "internalType": "uint256",
          "name": "amount",
          "type": "uint256"
        },
        {
          "indexed": false,
          "internalType": "bool",
          "name": "toBentoBox",
          "type": "bool"
        }
      ],
      "name": "Withdraw",
      "type": "event"
    },
    {
      "inputs": [],
      "name": "PERCENTAGE_PRECISION",
      "outputs": [
        {
          "internalType": "uint256",
          "name": "",
          "type": "uint256"
        }
      ],
      "stateMutability": "view",
      "type": "function"
    },
    {
      "inputs": [
        {
          "internalType": "address",
          "name": "spender",
          "type": "address"
        },
        {
          "internalType": "uint256",
          "name": "id",
          "type": "uint256"
        }
      ],
      "name": "approve",
      "outputs": [],
      "stateMutability": "nonpayable",
      "type": "function"
    },
    {
      "inputs": [
        {
          "internalType": "address",
          "name": "",
          "type": "address"
        }
      ],
      "name": "balanceOf",
      "outputs": [
        {
          "internalType": "uint256",
          "name": "",
          "type": "uint256"
        }
      ],
      "stateMutability": "view",
      "type": "function"
    },
    {
      "inputs": [],
      "name": "bentoBox",
      "outputs": [
        {
          "internalType": "contract IBentoBoxMinimal",
          "name": "",
          "type": "address"
        }
      ],
      "stateMutability": "view",
      "type": "function"
    },
    {
      "inputs": [],
      "name": "claimOwnership",
      "outputs": [],
      "stateMutability": "nonpayable",
      "type": "function"
    },
    {
      "inputs": [
        {
          "components": [
            {
              "internalType": "contract IERC20",
              "name": "token",
              "type": "address"
            },
            {
              "internalType": "address",
              "name": "recipient",
              "type": "address"
            },
            {
              "internalType": "uint32",
              "name": "start",
              "type": "uint32"
            },
            {
              "internalType": "uint32",
              "name": "cliffDuration",
              "type": "uint32"
            },
            {
              "internalType": "uint32",
              "name": "stepDuration",
              "type": "uint32"
            },
            {
              "internalType": "uint32",
              "name": "steps",
              "type": "uint32"
            },
            {
              "internalType": "uint128",
              "name": "stepPercentage",
              "type": "uint128"
            },
            {
              "internalType": "uint128",
              "name": "amount",
              "type": "uint128"
            },
            {
              "internalType": "bool",
              "name": "fromBentoBox",
              "type": "bool"
            },
            {
              "internalType": "uint256",
              "name": "minShare",
              "type": "uint256"
            }
          ],
          "internalType": "struct IFuroVesting.VestParams",
          "name": "vestParams",
          "type": "tuple"
        }
      ],
      "name": "createVesting",
      "outputs": [
        {
          "internalType": "uint256",
          "name": "depositedShares",
          "type": "uint256"
        },
        {
          "internalType": "uint256",
          "name": "vestId",
          "type": "uint256"
        },
        {
          "internalType": "uint128",
          "name": "stepShares",
          "type": "uint128"
        },
        {
          "internalType": "uint128",
          "name": "cliffShares",
          "type": "uint128"
        }
      ],
      "stateMutability": "payable",
      "type": "function"
    },
    {
      "inputs": [
        {
          "internalType": "uint256",
          "name": "",
          "type": "uint256"
        }
      ],
      "name": "getApproved",
      "outputs": [
        {
          "internalType": "address",
          "name": "",
          "type": "address"
        }
      ],
      "stateMutability": "view",
      "type": "function"
    },
    {
      "inputs": [
        {
          "internalType": "address",
          "name": "",
          "type": "address"
        },
        {
          "internalType": "address",
          "name": "",
          "type": "address"
        }
      ],
      "name": "isApprovedForAll",
      "outputs": [
        {
          "internalType": "bool",
          "name": "",
          "type": "bool"
        }
      ],
      "stateMutability": "view",
      "type": "function"
    },
    {
      "inputs": [
        {
          "internalType": "bytes[]",
          "name": "data",
          "type": "bytes[]"
        }
      ],
      "name": "multicall",
      "outputs": [
        {
          "internalType": "bytes[]",
          "name": "results",
          "type": "bytes[]"
        }
      ],
      "stateMutability": "payable",
      "type": "function"
    },
    {
      "inputs": [],
      "name": "name",
      "outputs": [
        {
          "internalType": "string",
          "name": "",
          "type": "string"
        }
      ],
      "stateMutability": "view",
      "type": "function"
    },
    {
      "inputs": [],
      "name": "owner",
      "outputs": [
        {
          "internalType": "address",
          "name": "",
          "type": "address"
        }
      ],
      "stateMutability": "view",
      "type": "function"
    },
    {
      "inputs": [
        {
          "internalType": "uint256",
          "name": "",
          "type": "uint256"
        }
      ],
      "name": "ownerOf",
      "outputs": [
        {
          "internalType": "address",
          "name": "",
          "type": "address"
        }
      ],
      "stateMutability": "view",
      "type": "function"
    },
    {
      "inputs": [],
      "name": "pendingOwner",
      "outputs": [
        {
          "internalType": "address",
          "name": "",
          "type": "address"
        }
      ],
      "stateMutability": "view",
      "type": "function"
    },
    {
      "inputs": [
        {
          "internalType": "address",
          "name": "from",
          "type": "address"
        },
        {
          "internalType": "address",
          "name": "to",
          "type": "address"
        },
        {
          "internalType": "uint256",
          "name": "id",
          "type": "uint256"
        }
      ],
      "name": "safeTransferFrom",
      "outputs": [],
      "stateMutability": "nonpayable",
      "type": "function"
    },
    {
      "inputs": [
        {
          "internalType": "address",
          "name": "from",
          "type": "address"
        },
        {
          "internalType": "address",
          "name": "to",
          "type": "address"
        },
        {
          "internalType": "uint256",
          "name": "id",
          "type": "uint256"
        },
        {
          "internalType": "bytes",
          "name": "data",
          "type": "bytes"
        }
      ],
      "name": "safeTransferFrom",
      "outputs": [],
      "stateMutability": "nonpayable",
      "type": "function"
    },
    {
      "inputs": [
        {
          "internalType": "address",
          "name": "operator",
          "type": "address"
        },
        {
          "internalType": "bool",
          "name": "approved",
          "type": "bool"
        }
      ],
      "name": "setApprovalForAll",
      "outputs": [],
      "stateMutability": "nonpayable",
      "type": "function"
    },
    {
      "inputs": [
        {
          "internalType": "address",
          "name": "user",
          "type": "address"
        },
        {
          "internalType": "bool",
          "name": "approved",
          "type": "bool"
        },
        {
          "internalType": "uint8",
          "name": "v",
          "type": "uint8"
        },
        {
          "internalType": "bytes32",
          "name": "r",
          "type": "bytes32"
        },
        {
          "internalType": "bytes32",
          "name": "s",
          "type": "bytes32"
        }
      ],
      "name": "setBentoBoxApproval",
      "outputs": [],
      "stateMutability": "payable",
      "type": "function"
    },
    {
      "inputs": [
        {
          "internalType": "address",
          "name": "_fetcher",
          "type": "address"
        }
      ],
      "name": "setTokenURIFetcher",
      "outputs": [],
      "stateMutability": "nonpayable",
      "type": "function"
    },
    {
      "inputs": [
        {
          "internalType": "uint256",
          "name": "vestId",
          "type": "uint256"
        },
        {
          "internalType": "bool",
          "name": "toBentoBox",
          "type": "bool"
        }
      ],
      "name": "stopVesting",
      "outputs": [],
      "stateMutability": "nonpayable",
      "type": "function"
    },
    {
      "inputs": [
        {
          "internalType": "bytes4",
          "name": "interfaceId",
          "type": "bytes4"
        }
      ],
      "name": "supportsInterface",
      "outputs": [
        {
          "internalType": "bool",
          "name": "",
          "type": "bool"
        }
      ],
      "stateMutability": "pure",
      "type": "function"
    },
    {
      "inputs": [],
      "name": "symbol",
      "outputs": [
        {
          "internalType": "string",
          "name": "",
          "type": "string"
        }
      ],
      "stateMutability": "view",
      "type": "function"
    },
    {
      "inputs": [
        {
          "internalType": "uint256",
          "name": "id",
          "type": "uint256"
        }
      ],
      "name": "tokenURI",
      "outputs": [
        {
          "internalType": "string",
          "name": "",
          "type": "string"
        }
      ],
      "stateMutability": "view",
      "type": "function"
    },
    {
      "inputs": [],
      "name": "tokenURIFetcher",
      "outputs": [
        {
          "internalType": "address",
          "name": "",
          "type": "address"
        }
      ],
      "stateMutability": "view",
      "type": "function"
    },
    {
      "inputs": [
        {
          "internalType": "address",
          "name": "from",
          "type": "address"
        },
        {
          "internalType": "address",
          "name": "to",
          "type": "address"
        },
        {
          "internalType": "uint256",
          "name": "id",
          "type": "uint256"
        }
      ],
      "name": "transferFrom",
      "outputs": [],
      "stateMutability": "nonpayable",
      "type": "function"
    },
    {
      "inputs": [
        {
          "internalType": "address",
          "name": "newOwner",
          "type": "address"
        },
        {
          "internalType": "bool",
          "name": "direct",
          "type": "bool"
        },
        {
          "internalType": "bool",
          "name": "renounce",
          "type": "bool"
        }
      ],
      "name": "transferOwnership",
      "outputs": [],
      "stateMutability": "nonpayable",
      "type": "function"
    },
    {
      "inputs": [
        {
          "internalType": "uint256",
          "name": "vestId",
          "type": "uint256"
        },
        {
          "internalType": "address",
          "name": "newOwner",
          "type": "address"
        }
      ],
      "name": "updateOwner",
      "outputs": [],
      "stateMutability": "nonpayable",
      "type": "function"
    },
    {
      "inputs": [
        {
          "internalType": "uint256",
          "name": "vestId",
          "type": "uint256"
        }
      ],
      "name": "vestBalance",
      "outputs": [
        {
          "internalType": "uint256",
          "name": "",
          "type": "uint256"
        }
      ],
      "stateMutability": "view",
      "type": "function"
    },
    {
      "inputs": [],
      "name": "vestIds",
      "outputs": [
        {
          "internalType": "uint256",
          "name": "",
          "type": "uint256"
        }
      ],
      "stateMutability": "view",
      "type": "function"
    },
    {
      "inputs": [
        {
          "internalType": "uint256",
          "name": "",
          "type": "uint256"
        }
      ],
      "name": "vests",
      "outputs": [
        {
          "internalType": "address",
          "name": "owner",
          "type": "address"
        },
        {
          "internalType": "contract IERC20",
          "name": "token",
          "type": "address"
        },
        {
          "internalType": "uint32",
          "name": "start",
          "type": "uint32"
        },
        {
          "internalType": "uint32",
          "name": "cliffDuration",
          "type": "uint32"
        },
        {
          "internalType": "uint32",
          "name": "stepDuration",
          "type": "uint32"
        },
        {
          "internalType": "uint32",
          "name": "steps",
          "type": "uint32"
        },
        {
          "internalType": "uint128",
          "name": "cliffShares",
          "type": "uint128"
        },
        {
          "internalType": "uint128",
          "name": "stepShares",
          "type": "uint128"
        },
        {
          "internalType": "uint128",
          "name": "claimed",
          "type": "uint128"
        }
      ],
      "stateMutability": "view",
      "type": "function"
    },
    {
      "inputs": [],
      "name": "wETH",
      "outputs": [
        {
          "internalType": "address",
          "name": "",
          "type": "address"
        }
      ],
      "stateMutability": "view",
      "type": "function"
    },
    {
      "inputs": [
        {
          "internalType": "uint256",
          "name": "vestId",
          "type": "uint256"
        },
        {
          "internalType": "bytes",
          "name": "taskData",
          "type": "bytes"
        },
        {
          "internalType": "bool",
          "name": "toBentoBox",
          "type": "bool"
        }
      ],
      "name": "withdraw",
      "outputs": [],
      "stateMutability": "nonpayable",
      "type": "function"
    }
  ],
  "transactionHash": "0xc11adfa62f95d769c2785f987d35f9937b9e833d2649d5ccb62e7d304b4ff508",
  "args": [
    "0x0711B6026068f736bae6B213031fCE978D48E026",
    "0xB31f66AA3C1e785363F0875A1B74E27b85FD66c7"
  ],
  "numDeployments": 2,
  "solcInputHash": "1ee8b76b4fcf9bd5d4b31cf6fdfc38b5",
  "bytecode": "0x60c06040523480156200001157600080fd5b50604051620039eb380380620039eb833981016040819052620000349162000216565b604080518082018252600c81526b4675726f2056657374696e6760a01b60208083019182528351808501909452600884526711955493d59154d560c21b908401528151919291620000889160009162000157565b5080516200009e90600190602084019062000157565b5050600680546001600160a01b031916339081179091556040519091506000907f8be0079c531659141344cd1fd0a4f28419497f9722a3daafe3b4186f6b6457e0908290a36001600160a01b03808316608081905290821660a0526001600a556040805163577268d960e11b8152905163aee4d1b29160048082019260009290919082900301818387803b1580156200013657600080fd5b505af11580156200014b573d6000803e3d6000fd5b50505050505062000292565b828054620001659062000255565b90600052602060002090601f016020900481019282620001895760008555620001d4565b82601f10620001a457805160ff1916838001178555620001d4565b82800160010185558215620001d4579182015b82811115620001d4578251825591602001919060010190620001b7565b50620001e2929150620001e6565b5090565b5b80821115620001e25760008155600101620001e7565b6001600160a01b03811681146200021357600080fd5b50565b600080604083850312156200022a57600080fd5b82516200023781620001fd565b60208401519092506200024a81620001fd565b809150509250929050565b600181811c908216806200026a57607f821691505b602082108114156200028c57634e487b7160e01b600052602260045260246000fd5b50919050565b60805160a051613702620002e9600039600081816107f6015261109f0152600081816105ef01528181611bd3015281816126d20152818161279c0152818161281601528181612aff0152612bc301526137026000f3fe6080604052600436106101d85760003560e01c80636352211e11610102578063ac9650d811610095578063e256888f11610064578063e256888f14610760578063e30c39781461077c578063e985e9c5146107a9578063f2428621146107e457600080fd5b8063ac9650d8146106e0578063b3a2b2cf14610700578063b88d4fde14610720578063c87b56dd1461074057600080fd5b80638da5cb5b116100d15780638da5cb5b1461065e57806395d89b411461068b578063a203db8e146106a0578063a22cb465146106c057600080fd5b80636352211e1461059a5780636b2ace87146105dd57806370a08231146106115780637192711f1461063e57600080fd5b80631aac5c341161017a57806342842e0e1161014957806342842e0e146103da578063489bb0b2146103fa5780634e71e0c81461040d57806351def5561461042257600080fd5b80631aac5c341461033957806323b872dd146103845780632bcea736146103a457806340e76eff146103ba57600080fd5b806307d88aad116101b657806307d88aad14610256578063081812fc146102a8578063095ea7b3146102eb57806319f771711461030b57600080fd5b806301ffc9a7146101dd57806306fdde0314610212578063078dfbe714610234575b600080fd5b3480156101e957600080fd5b506101fd6101f8366004612c80565b610818565b60405190151581526020015b60405180910390f35b34801561021e57600080fd5b506102276108fd565b6040516102099190612d13565b34801561024057600080fd5b5061025461024f366004612d5d565b61098b565b005b34801561026257600080fd5b506008546102839073ffffffffffffffffffffffffffffffffffffffff1681565b60405173ffffffffffffffffffffffffffffffffffffffff9091168152602001610209565b3480156102b457600080fd5b506102836102c3366004612da2565b60046020526000908152604090205473ffffffffffffffffffffffffffffffffffffffff1681565b3480156102f757600080fd5b50610254610306366004612dbb565b610b7c565b34801561031757600080fd5b5061032b610326366004612da2565b610cc6565b604051908152602001610209565b61034c610347366004612de7565b610ded565b6040805194855260208501939093526fffffffffffffffffffffffffffffffff91821692840192909252166060820152608001610209565b34801561039057600080fd5b5061025461039f366004612e00565b61142f565b3480156103b057600080fd5b5061032b600a5481565b3480156103c657600080fd5b506102546103d5366004612e41565b6116f6565b3480156103e657600080fd5b506102546103f5366004612e00565b611a04565b610254610408366004612ece565b611b69565b34801561041957600080fd5b50610254611c36565b34801561042e57600080fd5b5061051b61043d366004612da2565b600960205260009081526040902080546001820154600283015460039093015473ffffffffffffffffffffffffffffffffffffffff928316939282169263ffffffff740100000000000000000000000000000000000000008404811693780100000000000000000000000000000000000000000000000081048216937c0100000000000000000000000000000000000000000000000000000000909104821692918216916fffffffffffffffffffffffffffffffff640100000000909104811691808216917001000000000000000000000000000000009091041689565b6040805173ffffffffffffffffffffffffffffffffffffffff9a8b1681529990981660208a015263ffffffff96871697890197909752938516606088015291841660808701529290921660a08501526fffffffffffffffffffffffffffffffff91821660c0850152811660e08401521661010082015261012001610209565b3480156105a657600080fd5b506102836105b5366004612da2565b60036020526000908152604090205473ffffffffffffffffffffffffffffffffffffffff1681565b3480156105e957600080fd5b506102837f000000000000000000000000000000000000000000000000000000000000000081565b34801561061d57600080fd5b5061032b61062c366004612f2d565b60026020526000908152604090205481565b34801561064a57600080fd5b50610254610659366004612f4a565b611d4d565b34801561066a57600080fd5b506006546102839073ffffffffffffffffffffffffffffffffffffffff1681565b34801561069757600080fd5b50610227611e1b565b3480156106ac57600080fd5b506102546106bb366004612f7a565b611e28565b3480156106cc57600080fd5b506102546106db366004612fa6565b6120eb565b6106f36106ee366004612fd2565b612182565b6040516102099190613047565b34801561070c57600080fd5b5061025461071b366004612f2d565b6122f4565b34801561072c57600080fd5b5061025461073b36600461318b565b6123bc565b34801561074c57600080fd5b5061022761075b366004612da2565b61250d565b34801561076c57600080fd5b5061032b670de0b6b3a764000081565b34801561078857600080fd5b506007546102839073ffffffffffffffffffffffffffffffffffffffff1681565b3480156107b557600080fd5b506101fd6107c436600461323a565b600560209081526000928352604080842090915290825290205460ff1681565b3480156107f057600080fd5b506102837f000000000000000000000000000000000000000000000000000000000000000081565b60007f01ffc9a7000000000000000000000000000000000000000000000000000000007fffffffff00000000000000000000000000000000000000000000000000000000831614806108ab57507f80ac58cd000000000000000000000000000000000000000000000000000000007fffffffff000000000000000000000000000000000000000000000000000000008316145b806108f757507f5b5e139f000000000000000000000000000000000000000000000000000000007fffffffff000000000000000000000000000000000000000000000000000000008316145b92915050565b6000805461090a90613268565b80601f016020809104026020016040519081016040528092919081815260200182805461093690613268565b80156109835780601f1061095857610100808354040283529160200191610983565b820191906000526020600020905b81548152906001019060200180831161096657829003601f168201915b505050505081565b60065473ffffffffffffffffffffffffffffffffffffffff163314610a11576040517f08c379a000000000000000000000000000000000000000000000000000000000815260206004820181905260248201527f4f776e61626c653a2063616c6c6572206973206e6f7420746865206f776e657260448201526064015b60405180910390fd5b8115610b365773ffffffffffffffffffffffffffffffffffffffff8316151580610a385750805b610a9e576040517f08c379a000000000000000000000000000000000000000000000000000000000815260206004820152601560248201527f4f776e61626c653a207a65726f206164647265737300000000000000000000006044820152606401610a08565b60065460405173ffffffffffffffffffffffffffffffffffffffff8086169216907f8be0079c531659141344cd1fd0a4f28419497f9722a3daafe3b4186f6b6457e090600090a36006805473ffffffffffffffffffffffffffffffffffffffff85167fffffffffffffffffffffffff000000000000000000000000000000000000000091821617909155600780549091169055505050565b600780547fffffffffffffffffffffffff00000000000000000000000000000000000000001673ffffffffffffffffffffffffffffffffffffffff85161790555b505050565b60008181526003602052604090205473ffffffffffffffffffffffffffffffffffffffff1633811480610bdf575073ffffffffffffffffffffffffffffffffffffffff8116600090815260056020908152604080832033845290915290205460ff165b610c45576040517f08c379a000000000000000000000000000000000000000000000000000000000815260206004820152600e60248201527f4e4f545f415554484f52495a45440000000000000000000000000000000000006044820152606401610a08565b60008281526004602052604080822080547fffffffffffffffffffffffff00000000000000000000000000000000000000001673ffffffffffffffffffffffffffffffffffffffff87811691821790925591518593918516917f8c5be1e5ebec7d5bd14f71427d1e84f3dd0314c0f7b2291e5b200ac8c7c3b92591a4505050565b6000818152600960209081526040808320815161012081018352815473ffffffffffffffffffffffffffffffffffffffff908116825260018301549081169482019490945263ffffffff74010000000000000000000000000000000000000000850481169382019390935278010000000000000000000000000000000000000000000000008404831660608201527c010000000000000000000000000000000000000000000000000000000090930482166080840152600281015491821660a08401526fffffffffffffffffffffffffffffffff640100000000909204821660c08401526003015480821660e08401527001000000000000000000000000000000009004166101008201819052610ddc826125c3565b610de691906132e5565b9392505050565b600080808042610e0360608701604088016132fc565b63ffffffff161015610e41576040517f38356e4c00000000000000000000000000000000000000000000000000000000815260040160405180910390fd5b670de0b6b3a7640000610e5a60e0870160c08801613322565b6fffffffffffffffffffffffffffffffff161115610ea4576040517fd276d51400000000000000000000000000000000000000000000000000000000815260040160405180910390fd5b610eb460a08601608087016132fc565b63ffffffff161580610ed95750610ed160c0860160a087016132fc565b63ffffffff16155b15610f10576040517fd276d51400000000000000000000000000000000000000000000000000000000815260040160405180910390fd5b610f5c610f206020870187612f2d565b3330610f336101008a0160e08b01613322565b6fffffffffffffffffffffffffffffffff16610f576101208b016101008c01613354565b612677565b9350846101200135841015610f9d576040517f3999656700000000000000000000000000000000000000000000000000000000815260040160405180910390fd5b670de0b6b3a764000084610fb760e0880160c08901613322565b6fffffffffffffffffffffffffffffffff16610fd3919061336f565b610fdd91906133ac565b9150610fef60c0860160a087016132fc565b610fff9063ffffffff16836133e7565b61101b906fffffffffffffffffffffffffffffffff16856132e5565b600a8054919250600061102d8361341f565b90915550925061104c6110466040870160208801612f2d565b84612904565b60408051610120810190915233815260208082019060009061107090890189612f2d565b73ffffffffffffffffffffffffffffffffffffffff161461109d576110986020880188612f2d565b6110bf565b7f00000000000000000000000000000000000000000000000000000000000000005b73ffffffffffffffffffffffffffffffffffffffff1681526020016110ea60608801604089016132fc565b63ffffffff16815260200161110560808801606089016132fc565b63ffffffff16815260200161112060a08801608089016132fc565b63ffffffff16815260200161113b60c0880160a089016132fc565b63ffffffff90811682526fffffffffffffffffffffffffffffffff80851660208085019190915286821660408086019190915260006060958601819052898152600983528190208651815473ffffffffffffffffffffffffffffffffffffffff9182167fffffffffffffffffffffffff0000000000000000000000000000000000000000918216178355888501516001840180548b8701519a8c015160808d01518b167c0100000000000000000000000000000000000000000000000000000000027bffffffffffffffffffffffffffffffffffffffffffffffffffffffff918c167801000000000000000000000000000000000000000000000000029190911677ffffffffffffffffffffffffffffffffffffffffffffffff9c8c1674010000000000000000000000000000000000000000027fffffffffffffffff00000000000000000000000000000000000000000000000090931694909616939093171799909916929092179190911790965560a087015160028201805460c08a0151871664010000000002981691909616179590951790935560e085015161010090950151821670010000000000000000000000000000000002949091169390931760039092019190915561131391908701908701612f2d565b73ffffffffffffffffffffffffffffffffffffffff1633847f603bb53f65550199ed7346ba18d49bcb7ec77162b3167b272f8cd19b20d9510b61135960208a018a612f2d565b61136960608b0160408c016132fc565b61137960808c0160608d016132fc565b61138960a08d0160808e016132fc565b61139960c08e0160a08f016132fc565b898b8f6101000160208101906113af9190613354565b6040805173ffffffffffffffffffffffffffffffffffffffff909916895263ffffffff97881660208a0152958716958801959095529285166060870152931660808501526fffffffffffffffffffffffffffffffff92831660a08501529190911660c0830152151560e08201526101000160405180910390a49193509193565b60008181526003602052604090205473ffffffffffffffffffffffffffffffffffffffff8481169116146114bf576040517f08c379a000000000000000000000000000000000000000000000000000000000815260206004820152600a60248201527f57524f4e475f46524f4d000000000000000000000000000000000000000000006044820152606401610a08565b73ffffffffffffffffffffffffffffffffffffffff821661153c576040517f08c379a000000000000000000000000000000000000000000000000000000000815260206004820152601160248201527f494e56414c49445f524543495049454e540000000000000000000000000000006044820152606401610a08565b3373ffffffffffffffffffffffffffffffffffffffff84161480611583575060008181526004602052604090205473ffffffffffffffffffffffffffffffffffffffff1633145b806115be575073ffffffffffffffffffffffffffffffffffffffff8316600090815260056020908152604080832033845290915290205460ff165b611624576040517f08c379a000000000000000000000000000000000000000000000000000000000815260206004820152600e60248201527f4e4f545f415554484f52495a45440000000000000000000000000000000000006044820152606401610a08565b73ffffffffffffffffffffffffffffffffffffffff808416600081815260026020908152604080832080547fffffffffffffffffffffffffffffffffffffffffffffffffffffffffffffffff019055938616808352848320805460010190558583526003825284832080547fffffffffffffffffffffffff00000000000000000000000000000000000000009081168317909155600490925284832080549092169091559251849392917fddf252ad1be2c89b69c2b068fc378daa952ba7f163c4a11628f55a4df523b3ef91a4505050565b600084815260096020908152604080832060039092529091205473ffffffffffffffffffffffffffffffffffffffff1633811461175f576040517fe1c6117100000000000000000000000000000000000000000000000000000000815260040160405180910390fd5b60038201546040805161012081018252845473ffffffffffffffffffffffffffffffffffffffff90811682526001860154908116602083015274010000000000000000000000000000000000000000810463ffffffff9081169383019390935278010000000000000000000000000000000000000000000000008104831660608301527c0100000000000000000000000000000000000000000000000000000000900482166080820152600285015491821660a08201526fffffffffffffffffffffffffffffffff640100000000909204821660c082015281831660e0820152700100000000000000000000000000000000909204166101008201819052600091611869906125c3565b61187391906132e5565b905080611882575050506119fe565b808360030160108282829054906101000a90046fffffffffffffffffffffffffffffffff166118b19190613458565b92506101000a8154816fffffffffffffffffffffffffffffffff02191690836fffffffffffffffffffffffffffffffff1602179055506119188360010160009054906101000a900473ffffffffffffffffffffffffffffffffffffffff1630848488612a9d565b84156119a5576040517f330df28200000000000000000000000000000000000000000000000000000000815273ffffffffffffffffffffffffffffffffffffffff83169063330df28290611972908990899060040161348c565b600060405180830381600087803b15801561198c57600080fd5b505af11580156119a0573d6000803e3d6000fd5b505050505b60018301546040518515158152829173ffffffffffffffffffffffffffffffffffffffff169089907fff942d249898505febb2a9a00118e27567c084b9497d0aa3ba5e332c235b4f389060200160405180910390a45050505b50505050565b611a0f83838361142f565b73ffffffffffffffffffffffffffffffffffffffff82163b1580611b0357506040517f150b7a020000000000000000000000000000000000000000000000000000000080825233600483015273ffffffffffffffffffffffffffffffffffffffff858116602484015260448301849052608060648401526000608484015290919084169063150b7a029060a4016020604051808303816000875af1158015611abb573d6000803e3d6000fd5b505050506040513d601f19601f82011682018060405250810190611adf91906134d9565b7fffffffff0000000000000000000000000000000000000000000000000000000016145b610b77576040517f08c379a000000000000000000000000000000000000000000000000000000000815260206004820152601060248201527f554e534146455f524543495049454e54000000000000000000000000000000006044820152606401610a08565b6040517fc0a47c9300000000000000000000000000000000000000000000000000000000815273ffffffffffffffffffffffffffffffffffffffff8681166004830152306024830152851515604483015260ff851660648301526084820184905260a482018390527f0000000000000000000000000000000000000000000000000000000000000000169063c0a47c939060c401600060405180830381600087803b158015611c1757600080fd5b505af1158015611c2b573d6000803e3d6000fd5b505050505050505050565b60075473ffffffffffffffffffffffffffffffffffffffff16338114611cb8576040517f08c379a000000000000000000000000000000000000000000000000000000000815260206004820181905260248201527f4f776e61626c653a2063616c6c657220213d2070656e64696e67206f776e65726044820152606401610a08565b60065460405173ffffffffffffffffffffffffffffffffffffffff8084169216907f8be0079c531659141344cd1fd0a4f28419497f9722a3daafe3b4186f6b6457e090600090a36006805473ffffffffffffffffffffffffffffffffffffffff9092167fffffffffffffffffffffffff0000000000000000000000000000000000000000928316179055600780549091169055565b6000828152600960205260409020805473ffffffffffffffffffffffffffffffffffffffff163314611dab576040517f30cd747100000000000000000000000000000000000000000000000000000000815260040160405180910390fd5b80547fffffffffffffffffffffffff00000000000000000000000000000000000000001673ffffffffffffffffffffffffffffffffffffffff8316908117825560405184907fca0251ba80971adc7e92434b097ca40450b2a317013c51c5c5cb6ae74500bb0090600090a3505050565b6001805461090a90613268565b600082815260096020908152604091829020825161012081018452815473ffffffffffffffffffffffffffffffffffffffff90811680835260018401549182169483019490945263ffffffff74010000000000000000000000000000000000000000820481169583019590955278010000000000000000000000000000000000000000000000008104851660608301527c0100000000000000000000000000000000000000000000000000000000900484166080820152600282015493841660a08201526fffffffffffffffffffffffffffffffff640100000000909404841660c082015260039091015480841660e083015270010000000000000000000000000000000090049092166101008301523314611f70576040517f30cd747100000000000000000000000000000000000000000000000000000000815260040160405180910390fd5b6000611f7b826125c3565b905060008261010001516fffffffffffffffffffffffffffffffff1682611fa291906132e5565b90506000828460e001518560a0015163ffffffff16611fc191906133e7565b8560c00151611fd09190613458565b6fffffffffffffffffffffffffffffffff16611fec91906132e5565b600087815260096020908152604080832080547fffffffffffffffffffffffff0000000000000000000000000000000000000000908116825560018201859055600282018054909116905560039081018490558883015192529091205491925061206f91309073ffffffffffffffffffffffffffffffffffffffff168589612a9d565b612080846020015130338489612a9d565b8181877f061c75052be1ee7232bc654d7f489af163c983bb99c5affe5e8fc2e5225cb5778760200151896040516120db92919073ffffffffffffffffffffffffffffffffffffffff9290921682521515602082015260400190565b60405180910390a4505050505050565b33600081815260056020908152604080832073ffffffffffffffffffffffffffffffffffffffff87168085529083529281902080547fffffffffffffffffffffffffffffffffffffffffffffffffffffffffffffff001686151590811790915590519081529192917f17307eab39ab6107e8899845ad3d59bd9653f200f220920489ca2b5937696c31910160405180910390a35050565b60608167ffffffffffffffff81111561219d5761219d6130c7565b6040519080825280602002602001820160405280156121d057816020015b60608152602001906001900390816121bb5790505b50905060005b828110156122ed57600080308686858181106121f4576121f46134f6565b90506020028101906122069190613525565b604051612214929190613591565b600060405180830381855af49150503d806000811461224f576040519150601f19603f3d011682016040523d82523d6000602084013e612254565b606091505b5091509150816122ba5760448151101561226d57600080fd5b6004810190508080602001905181019061228791906135a1565b6040517f08c379a0000000000000000000000000000000000000000000000000000000008152600401610a089190612d13565b808484815181106122cd576122cd6134f6565b6020026020010181905250505080806122e59061341f565b9150506121d6565b5092915050565b60065473ffffffffffffffffffffffffffffffffffffffff163314612375576040517f08c379a000000000000000000000000000000000000000000000000000000000815260206004820181905260248201527f4f776e61626c653a2063616c6c6572206973206e6f7420746865206f776e65726044820152606401610a08565b600880547fffffffffffffffffffffffff00000000000000000000000000000000000000001673ffffffffffffffffffffffffffffffffffffffff92909216919091179055565b6123c784848461142f565b73ffffffffffffffffffffffffffffffffffffffff83163b15806124a757506040517f150b7a02000000000000000000000000000000000000000000000000000000008082529073ffffffffffffffffffffffffffffffffffffffff85169063150b7a029061244090339089908890889060040161360f565b6020604051808303816000875af115801561245f573d6000803e3d6000fd5b505050506040513d601f19601f8201168201806040525081019061248391906134d9565b7fffffffff0000000000000000000000000000000000000000000000000000000016145b6119fe576040517f08c379a000000000000000000000000000000000000000000000000000000000815260206004820152601060248201527f554e534146455f524543495049454e54000000000000000000000000000000006044820152606401610a08565b6008546040517fc981fac40000000000000000000000000000000000000000000000000000000081526004810183905260609173ffffffffffffffffffffffffffffffffffffffff169063c981fac490602401600060405180830381865afa15801561257d573d6000803e3d6000fd5b505050506040513d6000823e601f3d9081017fffffffffffffffffffffffffffffffffffffffffffffffffffffffffffffffe01682016040526108f791908101906135a1565b600080826060015183604001516125da9190613658565b63ffffffff169050804210156125f05750919050565b60006125fc82426132e5565b905060006126298560a0015163ffffffff16866080015163ffffffff168461262491906133ac565b612c39565b9050808560e001516fffffffffffffffffffffffffffffffff1661264d919061336f565b8560c001516fffffffffffffffffffffffffffffffff1661266e9190613677565b95945050505050565b600081156127ff576040517fda5139ca00000000000000000000000000000000000000000000000000000000815273ffffffffffffffffffffffffffffffffffffffff878116600483015260248201859052600060448301527f0000000000000000000000000000000000000000000000000000000000000000169063da5139ca90606401602060405180830381865afa158015612719573d6000803e3d6000fd5b505050506040513d601f19601f8201168201806040525081019061273d919061368f565b6040517ff18d03cc00000000000000000000000000000000000000000000000000000000815273ffffffffffffffffffffffffffffffffffffffff888116600483015287811660248301528681166044830152606482018390529192507f00000000000000000000000000000000000000000000000000000000000000009091169063f18d03cc90608401600060405180830381600087803b1580156127e257600080fd5b505af11580156127f6573d6000803e3d6000fd5b5050505061266e565b73ffffffffffffffffffffffffffffffffffffffff7f00000000000000000000000000000000000000000000000000000000000000008116906302b9446c9088161561284c57600061284e565b845b6040517fffffffff0000000000000000000000000000000000000000000000000000000060e084901b16815273ffffffffffffffffffffffffffffffffffffffff808b166004830152808a16602483015288166044820152606481018790526000608482015260a401604080518083038185885af11580156128d4573d6000803e3d6000fd5b50505050506040513d601f19601f820116820180604052508101906128f991906136a8565b979650505050505050565b73ffffffffffffffffffffffffffffffffffffffff8216612981576040517f08c379a000000000000000000000000000000000000000000000000000000000815260206004820152601160248201527f494e56414c49445f524543495049454e540000000000000000000000000000006044820152606401610a08565b60008181526003602052604090205473ffffffffffffffffffffffffffffffffffffffff1615612a0d576040517f08c379a000000000000000000000000000000000000000000000000000000000815260206004820152600e60248201527f414c52454144595f4d494e5445440000000000000000000000000000000000006044820152606401610a08565b73ffffffffffffffffffffffffffffffffffffffff8216600081815260026020908152604080832080546001019055848352600390915280822080547fffffffffffffffffffffffff0000000000000000000000000000000000000000168417905551839291907fddf252ad1be2c89b69c2b068fc378daa952ba7f163c4a11628f55a4df523b3ef908290a45050565b8015612b60576040517ff18d03cc00000000000000000000000000000000000000000000000000000000815273ffffffffffffffffffffffffffffffffffffffff868116600483015285811660248301528481166044830152606482018490527f0000000000000000000000000000000000000000000000000000000000000000169063f18d03cc90608401600060405180830381600087803b158015612b4357600080fd5b505af1158015612b57573d6000803e3d6000fd5b50505050612c32565b6040517f97da6d3000000000000000000000000000000000000000000000000000000000815273ffffffffffffffffffffffffffffffffffffffff86811660048301528581166024830152848116604483015260006064830152608482018490527f000000000000000000000000000000000000000000000000000000000000000016906397da6d309060a40160408051808303816000875af1158015612c0b573d6000803e3d6000fd5b505050506040513d601f19601f82011682018060405250810190612c2f91906136a8565b50505b5050505050565b6000818310612c485781610de6565b5090919050565b7fffffffff0000000000000000000000000000000000000000000000000000000081168114612c7d57600080fd5b50565b600060208284031215612c9257600080fd5b8135610de681612c4f565b60005b83811015612cb8578181015183820152602001612ca0565b838111156119fe5750506000910152565b60008151808452612ce1816020860160208601612c9d565b601f017fffffffffffffffffffffffffffffffffffffffffffffffffffffffffffffffe0169290920160200192915050565b602081526000610de66020830184612cc9565b73ffffffffffffffffffffffffffffffffffffffff81168114612c7d57600080fd5b80358015158114612d5857600080fd5b919050565b600080600060608486031215612d7257600080fd5b8335612d7d81612d26565b9250612d8b60208501612d48565b9150612d9960408501612d48565b90509250925092565b600060208284031215612db457600080fd5b5035919050565b60008060408385031215612dce57600080fd5b8235612dd981612d26565b946020939093013593505050565b60006101408284031215612dfa57600080fd5b50919050565b600080600060608486031215612e1557600080fd5b8335612e2081612d26565b92506020840135612e3081612d26565b929592945050506040919091013590565b60008060008060608587031215612e5757600080fd5b84359350602085013567ffffffffffffffff80821115612e7657600080fd5b818701915087601f830112612e8a57600080fd5b813581811115612e9957600080fd5b886020828501011115612eab57600080fd5b602083019550809450505050612ec360408601612d48565b905092959194509250565b600080600080600060a08688031215612ee657600080fd5b8535612ef181612d26565b9450612eff60208701612d48565b9350604086013560ff81168114612f1557600080fd5b94979396509394606081013594506080013592915050565b600060208284031215612f3f57600080fd5b8135610de681612d26565b60008060408385031215612f5d57600080fd5b823591506020830135612f6f81612d26565b809150509250929050565b60008060408385031215612f8d57600080fd5b82359150612f9d60208401612d48565b90509250929050565b60008060408385031215612fb957600080fd5b8235612fc481612d26565b9150612f9d60208401612d48565b60008060208385031215612fe557600080fd5b823567ffffffffffffffff80821115612ffd57600080fd5b818501915085601f83011261301157600080fd5b81358181111561302057600080fd5b8660208260051b850101111561303557600080fd5b60209290920196919550909350505050565b6000602080830181845280855180835260408601915060408160051b870101925083870160005b828110156130ba577fffffffffffffffffffffffffffffffffffffffffffffffffffffffffffffffc08886030184526130a8858351612cc9565b9450928501929085019060010161306e565b5092979650505050505050565b7f4e487b7100000000000000000000000000000000000000000000000000000000600052604160045260246000fd5b604051601f82017fffffffffffffffffffffffffffffffffffffffffffffffffffffffffffffffe016810167ffffffffffffffff8111828210171561313d5761313d6130c7565b604052919050565b600067ffffffffffffffff82111561315f5761315f6130c7565b50601f017fffffffffffffffffffffffffffffffffffffffffffffffffffffffffffffffe01660200190565b600080600080608085870312156131a157600080fd5b84356131ac81612d26565b935060208501356131bc81612d26565b925060408501359150606085013567ffffffffffffffff8111156131df57600080fd5b8501601f810187136131f057600080fd5b80356132036131fe82613145565b6130f6565b81815288602083850101111561321857600080fd5b8160208401602083013760006020838301015280935050505092959194509250565b6000806040838503121561324d57600080fd5b823561325881612d26565b91506020830135612f6f81612d26565b600181811c9082168061327c57607f821691505b60208210811415612dfa577f4e487b7100000000000000000000000000000000000000000000000000000000600052602260045260246000fd5b7f4e487b7100000000000000000000000000000000000000000000000000000000600052601160045260246000fd5b6000828210156132f7576132f76132b6565b500390565b60006020828403121561330e57600080fd5b813563ffffffff81168114610de657600080fd5b60006020828403121561333457600080fd5b81356fffffffffffffffffffffffffffffffff81168114610de657600080fd5b60006020828403121561336657600080fd5b610de682612d48565b6000817fffffffffffffffffffffffffffffffffffffffffffffffffffffffffffffffff04831182151516156133a7576133a76132b6565b500290565b6000826133e2577f4e487b7100000000000000000000000000000000000000000000000000000000600052601260045260246000fd5b500490565b60006fffffffffffffffffffffffffffffffff80831681851681830481118215151615613416576134166132b6565b02949350505050565b60007fffffffffffffffffffffffffffffffffffffffffffffffffffffffffffffffff821415613451576134516132b6565b5060010190565b60006fffffffffffffffffffffffffffffffff808316818516808303821115613483576134836132b6565b01949350505050565b60208152816020820152818360408301376000818301604090810191909152601f9092017fffffffffffffffffffffffffffffffffffffffffffffffffffffffffffffffe0160101919050565b6000602082840312156134eb57600080fd5b8151610de681612c4f565b7f4e487b7100000000000000000000000000000000000000000000000000000000600052603260045260246000fd5b60008083357fffffffffffffffffffffffffffffffffffffffffffffffffffffffffffffffe184360301811261355a57600080fd5b83018035915067ffffffffffffffff82111561357557600080fd5b60200191503681900382131561358a57600080fd5b9250929050565b8183823760009101908152919050565b6000602082840312156135b357600080fd5b815167ffffffffffffffff8111156135ca57600080fd5b8201601f810184136135db57600080fd5b80516135e96131fe82613145565b8181528560208385010111156135fe57600080fd5b61266e826020830160208601612c9d565b600073ffffffffffffffffffffffffffffffffffffffff80871683528086166020840152508360408301526080606083015261364e6080830184612cc9565b9695505050505050565b600063ffffffff808316818516808303821115613483576134836132b6565b6000821982111561368a5761368a6132b6565b500190565b6000602082840312156136a157600080fd5b5051919050565b600080604083850312156136bb57600080fd5b50508051602090910151909290915056fea2646970667358221220a8952d0da48f0399ece15f1fe6d1d0769d0f6fa4e998e39a91d525f5b5c45c1e64736f6c634300080a0033",
  "devdoc": {
    "kind": "dev",
    "methods": {
      "transferOwnership(address,bool,bool)": {
        "params": {
          "direct": "True if `newOwner` should be set immediately. False if `newOwner` needs to use `claimOwnership`.",
          "newOwner": "Address of the new owner.",
          "renounce": "Allows the `newOwner` to be `address(0)` if `direct` and `renounce` is True. Has no effect otherwise."
        }
      }
    },
    "version": 1
  },
  "userdoc": {
    "kind": "user",
    "methods": {
      "claimOwnership()": {
        "notice": "Needs to be called by `pendingOwner` to claim ownership."
      },
      "transferOwnership(address,bool,bool)": {
        "notice": "Transfers ownership to `newOwner`. Either directly or claimable by the new pending owner. Can only be invoked by the current `owner`."
      }
    },
    "version": 1
  },
  "storageLayout": {
    "storage": [
      {
        "astId": 532,
        "contract": "contracts/base/FuroVesting.sol:FuroVesting",
        "label": "name",
        "offset": 0,
        "slot": "0",
        "type": "t_string_storage"
      },
      {
        "astId": 534,
        "contract": "contracts/base/FuroVesting.sol:FuroVesting",
        "label": "symbol",
        "offset": 0,
        "slot": "1",
        "type": "t_string_storage"
      },
      {
        "astId": 545,
        "contract": "contracts/base/FuroVesting.sol:FuroVesting",
        "label": "balanceOf",
        "offset": 0,
        "slot": "2",
        "type": "t_mapping(t_address,t_uint256)"
      },
      {
        "astId": 549,
        "contract": "contracts/base/FuroVesting.sol:FuroVesting",
        "label": "ownerOf",
        "offset": 0,
        "slot": "3",
        "type": "t_mapping(t_uint256,t_address)"
      },
      {
        "astId": 553,
        "contract": "contracts/base/FuroVesting.sol:FuroVesting",
        "label": "getApproved",
        "offset": 0,
        "slot": "4",
        "type": "t_mapping(t_uint256,t_address)"
      },
      {
        "astId": 559,
        "contract": "contracts/base/FuroVesting.sol:FuroVesting",
        "label": "isApprovedForAll",
        "offset": 0,
        "slot": "5",
        "type": "t_mapping(t_address,t_mapping(t_address,t_bool))"
      },
      {
        "astId": 3309,
        "contract": "contracts/base/FuroVesting.sol:FuroVesting",
        "label": "owner",
        "offset": 0,
        "slot": "6",
        "type": "t_address"
      },
      {
        "astId": 3311,
        "contract": "contracts/base/FuroVesting.sol:FuroVesting",
        "label": "pendingOwner",
        "offset": 0,
        "slot": "7",
        "type": "t_address"
      },
      {
        "astId": 1867,
        "contract": "contracts/base/FuroVesting.sol:FuroVesting",
        "label": "tokenURIFetcher",
        "offset": 0,
        "slot": "8",
        "type": "t_address"
      },
      {
        "astId": 1872,
        "contract": "contracts/base/FuroVesting.sol:FuroVesting",
        "label": "vests",
        "offset": 0,
        "slot": "9",
        "type": "t_mapping(t_uint256,t_struct(Vest)2996_storage)"
      },
      {
        "astId": 1874,
        "contract": "contracts/base/FuroVesting.sol:FuroVesting",
        "label": "vestIds",
        "offset": 0,
        "slot": "10",
        "type": "t_uint256"
      }
    ],
    "types": {
      "t_address": {
        "encoding": "inplace",
        "label": "address",
        "numberOfBytes": "20"
      },
      "t_bool": {
        "encoding": "inplace",
        "label": "bool",
        "numberOfBytes": "1"
      },
      "t_contract(IERC20)2713": {
        "encoding": "inplace",
        "label": "contract IERC20",
        "numberOfBytes": "20"
      },
      "t_mapping(t_address,t_bool)": {
        "encoding": "mapping",
        "key": "t_address",
        "label": "mapping(address => bool)",
        "numberOfBytes": "32",
        "value": "t_bool"
      },
      "t_mapping(t_address,t_mapping(t_address,t_bool))": {
        "encoding": "mapping",
        "key": "t_address",
        "label": "mapping(address => mapping(address => bool))",
        "numberOfBytes": "32",
        "value": "t_mapping(t_address,t_bool)"
      },
      "t_mapping(t_address,t_uint256)": {
        "encoding": "mapping",
        "key": "t_address",
        "label": "mapping(address => uint256)",
        "numberOfBytes": "32",
        "value": "t_uint256"
      },
      "t_mapping(t_uint256,t_address)": {
        "encoding": "mapping",
        "key": "t_uint256",
        "label": "mapping(uint256 => address)",
        "numberOfBytes": "32",
        "value": "t_address"
      },
      "t_mapping(t_uint256,t_struct(Vest)2996_storage)": {
        "encoding": "mapping",
        "key": "t_uint256",
        "label": "mapping(uint256 => struct IFuroVesting.Vest)",
        "numberOfBytes": "32",
        "value": "t_struct(Vest)2996_storage"
      },
      "t_string_storage": {
        "encoding": "bytes",
        "label": "string",
        "numberOfBytes": "32"
      },
      "t_struct(Vest)2996_storage": {
        "encoding": "inplace",
        "label": "struct IFuroVesting.Vest",
        "members": [
          {
            "astId": 2978,
            "contract": "contracts/base/FuroVesting.sol:FuroVesting",
            "label": "owner",
            "offset": 0,
            "slot": "0",
            "type": "t_address"
          },
          {
            "astId": 2981,
            "contract": "contracts/base/FuroVesting.sol:FuroVesting",
            "label": "token",
            "offset": 0,
            "slot": "1",
            "type": "t_contract(IERC20)2713"
          },
          {
            "astId": 2983,
            "contract": "contracts/base/FuroVesting.sol:FuroVesting",
            "label": "start",
            "offset": 20,
            "slot": "1",
            "type": "t_uint32"
          },
          {
            "astId": 2985,
            "contract": "contracts/base/FuroVesting.sol:FuroVesting",
            "label": "cliffDuration",
            "offset": 24,
            "slot": "1",
            "type": "t_uint32"
          },
          {
            "astId": 2987,
            "contract": "contracts/base/FuroVesting.sol:FuroVesting",
            "label": "stepDuration",
            "offset": 28,
            "slot": "1",
            "type": "t_uint32"
          },
          {
            "astId": 2989,
            "contract": "contracts/base/FuroVesting.sol:FuroVesting",
            "label": "steps",
            "offset": 0,
            "slot": "2",
            "type": "t_uint32"
          },
          {
            "astId": 2991,
            "contract": "contracts/base/FuroVesting.sol:FuroVesting",
            "label": "cliffShares",
            "offset": 4,
            "slot": "2",
            "type": "t_uint128"
          },
          {
            "astId": 2993,
            "contract": "contracts/base/FuroVesting.sol:FuroVesting",
            "label": "stepShares",
            "offset": 0,
            "slot": "3",
            "type": "t_uint128"
          },
          {
            "astId": 2995,
            "contract": "contracts/base/FuroVesting.sol:FuroVesting",
            "label": "claimed",
            "offset": 16,
            "slot": "3",
            "type": "t_uint128"
          }
        ],
        "numberOfBytes": "128"
      },
      "t_uint128": {
        "encoding": "inplace",
        "label": "uint128",
        "numberOfBytes": "16"
      },
      "t_uint256": {
        "encoding": "inplace",
        "label": "uint256",
        "numberOfBytes": "32"
      },
      "t_uint32": {
        "encoding": "inplace",
        "label": "uint32",
        "numberOfBytes": "4"
      }
    }
  }
}