{
  "address": "0xf30CF8D373D78D7964A2F7793b730BF7ae0970a8",
  "abi": [
    {
      "inputs": [
        {
          "internalType": "contract IBentoBoxMinimal",
          "name": "_bentoBox",
          "type": "address"
        },
        {
          "internalType": "address",
          "name": "_wETH",
          "type": "address"
        }
      ],
      "stateMutability": "nonpayable",
      "type": "constructor"
    },
    {
      "inputs": [],
      "name": "InsufficientShares",
      "type": "error"
    },
    {
      "inputs": [],
      "name": "InvalidEndTime",
      "type": "error"
    },
    {
      "inputs": [],
      "name": "InvalidStartTime",
      "type": "error"
    },
    {
      "inputs": [],
      "name": "InvalidWithdrawTooMuch",
      "type": "error"
    },
    {
      "inputs": [],
      "name": "NotSender",
      "type": "error"
    },
    {
      "inputs": [],
      "name": "NotSenderOrRecipient",
      "type": "error"
    },
    {
      "inputs": [],
      "name": "Overflow",
      "type": "error"
    },
    {
      "anonymous": false,
      "inputs": [
        {
          "indexed": true,
          "internalType": "address",
          "name": "owner",
          "type": "address"
        },
        {
          "indexed": true,
          "internalType": "address",
          "name": "spender",
          "type": "address"
        },
        {
          "indexed": true,
          "internalType": "uint256",
          "name": "id",
          "type": "uint256"
        }
      ],
      "name": "Approval",
      "type": "event"
    },
    {
      "anonymous": false,
      "inputs": [
        {
          "indexed": true,
          "internalType": "address",
          "name": "owner",
          "type": "address"
        },
        {
          "indexed": true,
          "internalType": "address",
          "name": "operator",
          "type": "address"
        },
        {
          "indexed": false,
          "internalType": "bool",
          "name": "approved",
          "type": "bool"
        }
      ],
      "name": "ApprovalForAll",
      "type": "event"
    },
    {
      "anonymous": false,
      "inputs": [
        {
          "indexed": true,
          "internalType": "uint256",
          "name": "streamId",
          "type": "uint256"
        },
        {
          "indexed": true,
          "internalType": "uint256",
          "name": "senderBalance",
          "type": "uint256"
        },
        {
          "indexed": true,
          "internalType": "uint256",
          "name": "recipientBalance",
          "type": "uint256"
        },
        {
          "indexed": false,
          "internalType": "address",
          "name": "token",
          "type": "address"
        },
        {
          "indexed": false,
          "internalType": "bool",
          "name": "toBentoBox",
          "type": "bool"
        }
      ],
      "name": "CancelStream",
      "type": "event"
    },
    {
      "anonymous": false,
      "inputs": [
        {
          "indexed": true,
          "internalType": "uint256",
          "name": "streamId",
          "type": "uint256"
        },
        {
          "indexed": true,
          "internalType": "address",
          "name": "sender",
          "type": "address"
        },
        {
          "indexed": true,
          "internalType": "address",
          "name": "recipient",
          "type": "address"
        },
        {
          "indexed": false,
          "internalType": "address",
          "name": "token",
          "type": "address"
        },
        {
          "indexed": false,
          "internalType": "uint256",
          "name": "amount",
          "type": "uint256"
        },
        {
          "indexed": false,
          "internalType": "uint256",
          "name": "startTime",
          "type": "uint256"
        },
        {
          "indexed": false,
          "internalType": "uint256",
          "name": "endTime",
          "type": "uint256"
        },
        {
          "indexed": false,
          "internalType": "bool",
          "name": "fromBentoBox",
          "type": "bool"
        }
      ],
      "name": "CreateStream",
      "type": "event"
    },
    {
      "anonymous": false,
      "inputs": [
        {
          "indexed": true,
          "internalType": "address",
          "name": "previousOwner",
          "type": "address"
        },
        {
          "indexed": true,
          "internalType": "address",
          "name": "newOwner",
          "type": "address"
        }
      ],
      "name": "OwnershipTransferred",
      "type": "event"
    },
    {
      "anonymous": false,
      "inputs": [
        {
          "indexed": true,
          "internalType": "address",
          "name": "from",
          "type": "address"
        },
        {
          "indexed": true,
          "internalType": "address",
          "name": "to",
          "type": "address"
        },
        {
          "indexed": true,
          "internalType": "uint256",
          "name": "id",
          "type": "uint256"
        }
      ],
      "name": "Transfer",
      "type": "event"
    },
    {
      "anonymous": false,
      "inputs": [
        {
          "indexed": true,
          "internalType": "uint256",
          "name": "streamId",
          "type": "uint256"
        },
        {
          "indexed": true,
          "internalType": "uint128",
          "name": "topUpAmount",
          "type": "uint128"
        },
        {
          "indexed": true,
          "internalType": "uint64",
          "name": "extendTime",
          "type": "uint64"
        },
        {
          "indexed": false,
          "internalType": "bool",
          "name": "fromBentoBox",
          "type": "bool"
        }
      ],
      "name": "UpdateStream",
      "type": "event"
    },
    {
      "anonymous": false,
      "inputs": [
        {
          "indexed": true,
          "internalType": "uint256",
          "name": "streamId",
          "type": "uint256"
        },
        {
          "indexed": true,
          "internalType": "uint256",
          "name": "sharesToWithdraw",
          "type": "uint256"
        },
        {
          "indexed": true,
          "internalType": "address",
          "name": "withdrawTo",
          "type": "address"
        },
        {
          "indexed": false,
          "internalType": "address",
          "name": "token",
          "type": "address"
        },
        {
          "indexed": false,
          "internalType": "bool",
          "name": "toBentoBox",
          "type": "bool"
        }
      ],
      "name": "Withdraw",
      "type": "event"
    },
    {
      "inputs": [
        {
          "internalType": "address",
          "name": "spender",
          "type": "address"
        },
        {
          "internalType": "uint256",
          "name": "id",
          "type": "uint256"
        }
      ],
      "name": "approve",
      "outputs": [],
      "stateMutability": "nonpayable",
      "type": "function"
    },
    {
      "inputs": [
        {
          "internalType": "address",
          "name": "",
          "type": "address"
        }
      ],
      "name": "balanceOf",
      "outputs": [
        {
          "internalType": "uint256",
          "name": "",
          "type": "uint256"
        }
      ],
      "stateMutability": "view",
      "type": "function"
    },
    {
      "inputs": [],
      "name": "bentoBox",
      "outputs": [
        {
          "internalType": "contract IBentoBoxMinimal",
          "name": "",
          "type": "address"
        }
      ],
      "stateMutability": "view",
      "type": "function"
    },
    {
      "inputs": [
        {
          "internalType": "uint256",
          "name": "streamId",
          "type": "uint256"
        },
        {
          "internalType": "bool",
          "name": "toBentoBox",
          "type": "bool"
        }
      ],
      "name": "cancelStream",
      "outputs": [
        {
          "internalType": "uint256",
          "name": "senderBalance",
          "type": "uint256"
        },
        {
          "internalType": "uint256",
          "name": "recipientBalance",
          "type": "uint256"
        }
      ],
      "stateMutability": "nonpayable",
      "type": "function"
    },
    {
      "inputs": [],
      "name": "claimOwnership",
      "outputs": [],
      "stateMutability": "nonpayable",
      "type": "function"
    },
    {
      "inputs": [
        {
          "internalType": "address",
          "name": "recipient",
          "type": "address"
        },
        {
          "internalType": "address",
          "name": "token",
          "type": "address"
        },
        {
          "internalType": "uint64",
          "name": "startTime",
          "type": "uint64"
        },
        {
          "internalType": "uint64",
          "name": "endTime",
          "type": "uint64"
        },
        {
          "internalType": "uint256",
          "name": "amount",
          "type": "uint256"
        },
        {
          "internalType": "bool",
          "name": "fromBentoBox",
          "type": "bool"
        },
        {
          "internalType": "uint256",
          "name": "minShare",
          "type": "uint256"
        }
      ],
      "name": "createStream",
      "outputs": [
        {
          "internalType": "uint256",
          "name": "streamId",
          "type": "uint256"
        },
        {
          "internalType": "uint256",
          "name": "depositedShares",
          "type": "uint256"
        }
      ],
      "stateMutability": "payable",
      "type": "function"
    },
    {
      "inputs": [
        {
          "internalType": "uint256",
          "name": "",
          "type": "uint256"
        }
      ],
      "name": "getApproved",
      "outputs": [
        {
          "internalType": "address",
          "name": "",
          "type": "address"
        }
      ],
      "stateMutability": "view",
      "type": "function"
    },
    {
      "inputs": [
        {
          "internalType": "uint256",
          "name": "streamId",
          "type": "uint256"
        }
      ],
      "name": "getStream",
      "outputs": [
        {
          "components": [
            {
              "internalType": "address",
              "name": "sender",
              "type": "address"
            },
            {
              "internalType": "address",
              "name": "token",
              "type": "address"
            },
            {
              "internalType": "uint128",
              "name": "depositedShares",
              "type": "uint128"
            },
            {
              "internalType": "uint128",
              "name": "withdrawnShares",
              "type": "uint128"
            },
            {
              "internalType": "uint64",
              "name": "startTime",
              "type": "uint64"
            },
            {
              "internalType": "uint64",
              "name": "endTime",
              "type": "uint64"
            }
          ],
          "internalType": "struct IFuroStream.Stream",
          "name": "",
          "type": "tuple"
        }
      ],
      "stateMutability": "view",
      "type": "function"
    },
    {
      "inputs": [
        {
          "internalType": "address",
          "name": "",
          "type": "address"
        },
        {
          "internalType": "address",
          "name": "",
          "type": "address"
        }
      ],
      "name": "isApprovedForAll",
      "outputs": [
        {
          "internalType": "bool",
          "name": "",
          "type": "bool"
        }
      ],
      "stateMutability": "view",
      "type": "function"
    },
    {
      "inputs": [
        {
          "internalType": "bytes[]",
          "name": "data",
          "type": "bytes[]"
        }
      ],
      "name": "multicall",
      "outputs": [
        {
          "internalType": "bytes[]",
          "name": "results",
          "type": "bytes[]"
        }
      ],
      "stateMutability": "payable",
      "type": "function"
    },
    {
      "inputs": [],
      "name": "name",
      "outputs": [
        {
          "internalType": "string",
          "name": "",
          "type": "string"
        }
      ],
      "stateMutability": "view",
      "type": "function"
    },
    {
      "inputs": [],
      "name": "owner",
      "outputs": [
        {
          "internalType": "address",
          "name": "",
          "type": "address"
        }
      ],
      "stateMutability": "view",
      "type": "function"
    },
    {
      "inputs": [
        {
          "internalType": "uint256",
          "name": "",
          "type": "uint256"
        }
      ],
      "name": "ownerOf",
      "outputs": [
        {
          "internalType": "address",
          "name": "",
          "type": "address"
        }
      ],
      "stateMutability": "view",
      "type": "function"
    },
    {
      "inputs": [],
      "name": "pendingOwner",
      "outputs": [
        {
          "internalType": "address",
          "name": "",
          "type": "address"
        }
      ],
      "stateMutability": "view",
      "type": "function"
    },
    {
      "inputs": [
        {
          "internalType": "address",
          "name": "from",
          "type": "address"
        },
        {
          "internalType": "address",
          "name": "to",
          "type": "address"
        },
        {
          "internalType": "uint256",
          "name": "id",
          "type": "uint256"
        }
      ],
      "name": "safeTransferFrom",
      "outputs": [],
      "stateMutability": "nonpayable",
      "type": "function"
    },
    {
      "inputs": [
        {
          "internalType": "address",
          "name": "from",
          "type": "address"
        },
        {
          "internalType": "address",
          "name": "to",
          "type": "address"
        },
        {
          "internalType": "uint256",
          "name": "id",
          "type": "uint256"
        },
        {
          "internalType": "bytes",
          "name": "data",
          "type": "bytes"
        }
      ],
      "name": "safeTransferFrom",
      "outputs": [],
      "stateMutability": "nonpayable",
      "type": "function"
    },
    {
      "inputs": [
        {
          "internalType": "address",
          "name": "operator",
          "type": "address"
        },
        {
          "internalType": "bool",
          "name": "approved",
          "type": "bool"
        }
      ],
      "name": "setApprovalForAll",
      "outputs": [],
      "stateMutability": "nonpayable",
      "type": "function"
    },
    {
      "inputs": [
        {
          "internalType": "address",
          "name": "user",
          "type": "address"
        },
        {
          "internalType": "bool",
          "name": "approved",
          "type": "bool"
        },
        {
          "internalType": "uint8",
          "name": "v",
          "type": "uint8"
        },
        {
          "internalType": "bytes32",
          "name": "r",
          "type": "bytes32"
        },
        {
          "internalType": "bytes32",
          "name": "s",
          "type": "bytes32"
        }
      ],
      "name": "setBentoBoxApproval",
      "outputs": [],
      "stateMutability": "payable",
      "type": "function"
    },
    {
      "inputs": [
        {
          "internalType": "address",
          "name": "_fetcher",
          "type": "address"
        }
      ],
      "name": "setTokenURIFetcher",
      "outputs": [],
      "stateMutability": "nonpayable",
      "type": "function"
    },
    {
      "inputs": [
        {
          "internalType": "uint256",
          "name": "streamId",
          "type": "uint256"
        }
      ],
      "name": "streamBalanceOf",
      "outputs": [
        {
          "internalType": "uint256",
          "name": "senderBalance",
          "type": "uint256"
        },
        {
          "internalType": "uint256",
          "name": "recipientBalance",
          "type": "uint256"
        }
      ],
      "stateMutability": "view",
      "type": "function"
    },
    {
      "inputs": [],
      "name": "streamIds",
      "outputs": [
        {
          "internalType": "uint256",
          "name": "",
          "type": "uint256"
        }
      ],
      "stateMutability": "view",
      "type": "function"
    },
    {
      "inputs": [
        {
          "internalType": "uint256",
          "name": "",
          "type": "uint256"
        }
      ],
      "name": "streams",
      "outputs": [
        {
          "internalType": "address",
          "name": "sender",
          "type": "address"
        },
        {
          "internalType": "address",
          "name": "token",
          "type": "address"
        },
        {
          "internalType": "uint128",
          "name": "depositedShares",
          "type": "uint128"
        },
        {
          "internalType": "uint128",
          "name": "withdrawnShares",
          "type": "uint128"
        },
        {
          "internalType": "uint64",
          "name": "startTime",
          "type": "uint64"
        },
        {
          "internalType": "uint64",
          "name": "endTime",
          "type": "uint64"
        }
      ],
      "stateMutability": "view",
      "type": "function"
    },
    {
      "inputs": [
        {
          "internalType": "bytes4",
          "name": "interfaceId",
          "type": "bytes4"
        }
      ],
      "name": "supportsInterface",
      "outputs": [
        {
          "internalType": "bool",
          "name": "",
          "type": "bool"
        }
      ],
      "stateMutability": "pure",
      "type": "function"
    },
    {
      "inputs": [],
      "name": "symbol",
      "outputs": [
        {
          "internalType": "string",
          "name": "",
          "type": "string"
        }
      ],
      "stateMutability": "view",
      "type": "function"
    },
    {
      "inputs": [
        {
          "internalType": "uint256",
          "name": "id",
          "type": "uint256"
        }
      ],
      "name": "tokenURI",
      "outputs": [
        {
          "internalType": "string",
          "name": "",
          "type": "string"
        }
      ],
      "stateMutability": "view",
      "type": "function"
    },
    {
      "inputs": [],
      "name": "tokenURIFetcher",
      "outputs": [
        {
          "internalType": "address",
          "name": "",
          "type": "address"
        }
      ],
      "stateMutability": "view",
      "type": "function"
    },
    {
      "inputs": [
        {
          "internalType": "address",
          "name": "from",
          "type": "address"
        },
        {
          "internalType": "address",
          "name": "to",
          "type": "address"
        },
        {
          "internalType": "uint256",
          "name": "id",
          "type": "uint256"
        }
      ],
      "name": "transferFrom",
      "outputs": [],
      "stateMutability": "nonpayable",
      "type": "function"
    },
    {
      "inputs": [
        {
          "internalType": "address",
          "name": "newOwner",
          "type": "address"
        },
        {
          "internalType": "bool",
          "name": "direct",
          "type": "bool"
        },
        {
          "internalType": "bool",
          "name": "renounce",
          "type": "bool"
        }
      ],
      "name": "transferOwnership",
      "outputs": [],
      "stateMutability": "nonpayable",
      "type": "function"
    },
    {
      "inputs": [
        {
          "internalType": "uint256",
          "name": "streamId",
          "type": "uint256"
        },
        {
          "internalType": "address",
          "name": "sender",
          "type": "address"
        }
      ],
      "name": "updateSender",
      "outputs": [],
      "stateMutability": "nonpayable",
      "type": "function"
    },
    {
      "inputs": [
        {
          "internalType": "uint256",
          "name": "streamId",
          "type": "uint256"
        },
        {
          "internalType": "uint128",
          "name": "topUpAmount",
          "type": "uint128"
        },
        {
          "internalType": "uint64",
          "name": "extendTime",
          "type": "uint64"
        },
        {
          "internalType": "bool",
          "name": "fromBentoBox",
          "type": "bool"
        }
      ],
      "name": "updateStream",
      "outputs": [
        {
          "internalType": "uint256",
          "name": "depositedShares",
          "type": "uint256"
        }
      ],
      "stateMutability": "payable",
      "type": "function"
    },
    {
      "inputs": [],
      "name": "wETH",
      "outputs": [
        {
          "internalType": "address",
          "name": "",
          "type": "address"
        }
      ],
      "stateMutability": "view",
      "type": "function"
    },
    {
      "inputs": [
        {
          "internalType": "uint256",
          "name": "streamId",
          "type": "uint256"
        },
        {
          "internalType": "uint256",
          "name": "sharesToWithdraw",
          "type": "uint256"
        },
        {
          "internalType": "address",
          "name": "withdrawTo",
          "type": "address"
        },
        {
          "internalType": "bool",
          "name": "toBentoBox",
          "type": "bool"
        },
        {
          "internalType": "bytes",
          "name": "taskData",
          "type": "bytes"
        }
      ],
      "name": "withdrawFromStream",
      "outputs": [
        {
          "internalType": "uint256",
          "name": "recipientBalance",
          "type": "uint256"
        },
        {
          "internalType": "address",
          "name": "to",
          "type": "address"
        }
      ],
      "stateMutability": "nonpayable",
      "type": "function"
    }
  ],
  "transactionHash": "0x838545fee41c2070f81275ef06c27edbe20c553c57f51b156e4289e571437968",
  "args": [
    "0x0711B6026068f736bae6B213031fCE978D48E026",
    "0xB31f66AA3C1e785363F0875A1B74E27b85FD66c7"
  ],
  "numDeployments": 2,
  "solcInputHash": "1ee8b76b4fcf9bd5d4b31cf6fdfc38b5",
  "bytecode": "0x60c06040523480156200001157600080fd5b5060405162003b6338038062003b63833981016040819052620000349162000218565b604080518082018252600b81526a4675726f2053747265616d60a81b60208083019182528351808501909452600a8452694655524f53545245414d60b01b908401528151919291620000899160009162000159565b5080516200009f90600190602084019062000159565b5050600680546001600160a01b031916339081179091556040519091506000907f8be0079c531659141344cd1fd0a4f28419497f9722a3daafe3b4186f6b6457e0908290a36001600160a01b03808316608081905290821660a0526103e86008556040805163577268d960e11b8152905163aee4d1b29160048082019260009290919082900301818387803b1580156200013857600080fd5b505af11580156200014d573d6000803e3d6000fd5b50505050505062000294565b828054620001679062000257565b90600052602060002090601f0160209004810192826200018b5760008555620001d6565b82601f10620001a657805160ff1916838001178555620001d6565b82800160010185558215620001d6579182015b82811115620001d6578251825591602001919060010190620001b9565b50620001e4929150620001e8565b5090565b5b80821115620001e45760008155600101620001e9565b6001600160a01b03811681146200021557600080fd5b50565b600080604083850312156200022c57600080fd5b82516200023981620001ff565b60208401519092506200024c81620001ff565b809150509250929050565b600181811c908216806200026c57607f821691505b602082108114156200028e57634e487b7160e01b600052602260045260246000fd5b50919050565b60805160a051613878620002eb600039600081816109050152611c620152600081816105ae015281816113dc015281816127da0152818161289e0152818161296f01528181612a390152612ab301526138786000f3fe6080604052600436106101e35760003560e01c806365e1d2e111610102578063ac9650d811610095578063e30c397811610064578063e30c39781461088b578063e985e9c5146108b8578063f2428621146108f3578063f8c7e5881461092757600080fd5b8063ac9650d81461080b578063b3a2b2cf1461082b578063b88d4fde1461084b578063c87b56dd1461086b57600080fd5b80638da5cb5b116100d15780638da5cb5b1461079357806395d89b41146107c05780639fd2640e146107d5578063a22cb465146107eb57600080fd5b806365e1d2e1146105895780636b2ace871461059c57806370a08231146105d0578063894e9a0d1461060b57600080fd5b80632b9134531161017a5780634e71e0c8116101495780634e71e0c81461040857806359f71c1a1461041d5780636352211e1461043d57806364d60d911461048057600080fd5b80632b9134531461036b57806342842e0e1461038b578063489bb0b2146103ab57806348bae94b146103be57600080fd5b8063081812fc116101b6578063081812fc146102b3578063095ea7b3146102f657806323b872dd1461031657806325958d8f1461033657600080fd5b806301ffc9a7146101e857806306fdde031461021d578063078dfbe71461023f57806307d88aad14610261575b600080fd5b3480156101f457600080fd5b50610208610203366004612d6d565b61093a565b60405190151581526020015b60405180910390f35b34801561022957600080fd5b50610232610a1f565b6040516102149190612e07565b34801561024b57600080fd5b5061025f61025a366004612e53565b610aad565b005b34801561026d57600080fd5b5060095461028e9073ffffffffffffffffffffffffffffffffffffffff1681565b60405173ffffffffffffffffffffffffffffffffffffffff9091168152602001610214565b3480156102bf57600080fd5b5061028e6102ce366004612e96565b60046020526000908152604090205473ffffffffffffffffffffffffffffffffffffffff1681565b34801561030257600080fd5b5061025f610311366004612eaf565b610c9e565b34801561032257600080fd5b5061025f610331366004612ed9565b610de8565b34801561034257600080fd5b50610356610351366004612e96565b6110af565b60408051928352602083019190915201610214565b34801561037757600080fd5b5061025f610386366004612f15565b611169565b34801561039757600080fd5b5061025f6103a6366004612ed9565b61120d565b61025f6103b9366004612f41565b611372565b3480156103ca57600080fd5b506103de6103d9366004612f9e565b61143f565b6040805192835273ffffffffffffffffffffffffffffffffffffffff909116602083015201610214565b34801561041457600080fd5b5061025f6117c8565b34801561042957600080fd5b50610356610438366004613044565b6118df565b34801561044957600080fd5b5061028e610458366004612e96565b60036020526000908152604090205473ffffffffffffffffffffffffffffffffffffffff1681565b34801561048c57600080fd5b5061052161049b366004612e96565b600a60205260009081526040902080546001820154600283015460039093015473ffffffffffffffffffffffffffffffffffffffff9283169391909216916fffffffffffffffffffffffffffffffff808316927001000000000000000000000000000000009004169067ffffffffffffffff808216916801000000000000000090041686565b6040805173ffffffffffffffffffffffffffffffffffffffff97881681529690951660208701526fffffffffffffffffffffffffffffffff938416948601949094529116606084015267ffffffffffffffff90811660808401521660a082015260c001610214565b61035661059736600461307f565b611b2f565b3480156105a857600080fd5b5061028e7f000000000000000000000000000000000000000000000000000000000000000081565b3480156105dc57600080fd5b506105fd6105eb3660046130f7565b60026020526000908152604090205481565b604051908152602001610214565b34801561061757600080fd5b50610705610626366004612e96565b6040805160c081018252600080825260208201819052918101829052606081018290526080810182905260a0810191909152506000908152600a6020908152604091829020825160c081018452815473ffffffffffffffffffffffffffffffffffffffff90811682526001830154169281019290925260028101546fffffffffffffffffffffffffffffffff808216948401949094527001000000000000000000000000000000009004909216606082015260039091015467ffffffffffffffff8082166080840152680100000000000000009091041660a082015290565b6040516102149190600060c08201905073ffffffffffffffffffffffffffffffffffffffff8084511683528060208501511660208401525060408301516fffffffffffffffffffffffffffffffff80821660408501528060608601511660608501525050608083015167ffffffffffffffff80821660808501528060a08601511660a0850152505092915050565b34801561079f57600080fd5b5060065461028e9073ffffffffffffffffffffffffffffffffffffffff1681565b3480156107cc57600080fd5b50610232611e3c565b3480156107e157600080fd5b506105fd60085481565b3480156107f757600080fd5b5061025f610806366004613112565b611e49565b61081e61081936600461313c565b611ee0565b60405161021491906131b1565b34801561083757600080fd5b5061025f6108463660046130f7565b612052565b34801561085757600080fd5b5061025f6108663660046132f5565b61211a565b34801561087757600080fd5b50610232610886366004612e96565b612271565b34801561089757600080fd5b5060075461028e9073ffffffffffffffffffffffffffffffffffffffff1681565b3480156108c457600080fd5b506102086108d33660046133a0565b600560209081526000928352604080842090915290825290205460ff1681565b3480156108ff57600080fd5b5061028e7f000000000000000000000000000000000000000000000000000000000000000081565b6105fd6109353660046133ca565b612327565b60007f01ffc9a7000000000000000000000000000000000000000000000000000000007fffffffff00000000000000000000000000000000000000000000000000000000831614806109cd57507f80ac58cd000000000000000000000000000000000000000000000000000000007fffffffff000000000000000000000000000000000000000000000000000000008316145b80610a1957507f5b5e139f000000000000000000000000000000000000000000000000000000007fffffffff000000000000000000000000000000000000000000000000000000008316145b92915050565b60008054610a2c9061342e565b80601f0160208091040260200160405190810160405280929190818152602001828054610a589061342e565b8015610aa55780601f10610a7a57610100808354040283529160200191610aa5565b820191906000526020600020905b815481529060010190602001808311610a8857829003601f168201915b505050505081565b60065473ffffffffffffffffffffffffffffffffffffffff163314610b33576040517f08c379a000000000000000000000000000000000000000000000000000000000815260206004820181905260248201527f4f776e61626c653a2063616c6c6572206973206e6f7420746865206f776e657260448201526064015b60405180910390fd5b8115610c585773ffffffffffffffffffffffffffffffffffffffff8316151580610b5a5750805b610bc0576040517f08c379a000000000000000000000000000000000000000000000000000000000815260206004820152601560248201527f4f776e61626c653a207a65726f206164647265737300000000000000000000006044820152606401610b2a565b60065460405173ffffffffffffffffffffffffffffffffffffffff8086169216907f8be0079c531659141344cd1fd0a4f28419497f9722a3daafe3b4186f6b6457e090600090a36006805473ffffffffffffffffffffffffffffffffffffffff85167fffffffffffffffffffffffff000000000000000000000000000000000000000091821617909155600780549091169055505050565b600780547fffffffffffffffffffffffff00000000000000000000000000000000000000001673ffffffffffffffffffffffffffffffffffffffff85161790555b505050565b60008181526003602052604090205473ffffffffffffffffffffffffffffffffffffffff1633811480610d01575073ffffffffffffffffffffffffffffffffffffffff8116600090815260056020908152604080832033845290915290205460ff165b610d67576040517f08c379a000000000000000000000000000000000000000000000000000000000815260206004820152600e60248201527f4e4f545f415554484f52495a45440000000000000000000000000000000000006044820152606401610b2a565b60008281526004602052604080822080547fffffffffffffffffffffffff00000000000000000000000000000000000000001673ffffffffffffffffffffffffffffffffffffffff87811691821790925591518593918516917f8c5be1e5ebec7d5bd14f71427d1e84f3dd0314c0f7b2291e5b200ac8c7c3b92591a4505050565b60008181526003602052604090205473ffffffffffffffffffffffffffffffffffffffff848116911614610e78576040517f08c379a000000000000000000000000000000000000000000000000000000000815260206004820152600a60248201527f57524f4e475f46524f4d000000000000000000000000000000000000000000006044820152606401610b2a565b73ffffffffffffffffffffffffffffffffffffffff8216610ef5576040517f08c379a000000000000000000000000000000000000000000000000000000000815260206004820152601160248201527f494e56414c49445f524543495049454e540000000000000000000000000000006044820152606401610b2a565b3373ffffffffffffffffffffffffffffffffffffffff84161480610f3c575060008181526004602052604090205473ffffffffffffffffffffffffffffffffffffffff1633145b80610f77575073ffffffffffffffffffffffffffffffffffffffff8316600090815260056020908152604080832033845290915290205460ff165b610fdd576040517f08c379a000000000000000000000000000000000000000000000000000000000815260206004820152600e60248201527f4e4f545f415554484f52495a45440000000000000000000000000000000000006044820152606401610b2a565b73ffffffffffffffffffffffffffffffffffffffff808416600081815260026020908152604080832080547fffffffffffffffffffffffffffffffffffffffffffffffffffffffffffffffff019055938616808352848320805460010190558583526003825284832080547fffffffffffffffffffffffff00000000000000000000000000000000000000009081168317909155600490925284832080549092169091559251849392917fddf252ad1be2c89b69c2b068fc378daa952ba7f163c4a11628f55a4df523b3ef91a4505050565b6000818152600a60209081526040808320815160c081018352815473ffffffffffffffffffffffffffffffffffffffff90811682526001830154169381019390935260028101546fffffffffffffffffffffffffffffffff80821693850193909352700100000000000000000000000000000000900490911660608301526003015467ffffffffffffffff8082166080840152680100000000000000009091041660a0820152819061116090612653565b91509150915091565b6000828152600a60205260409020805473ffffffffffffffffffffffffffffffffffffffff1633146111c7576040517fb2c3aa6b00000000000000000000000000000000000000000000000000000000815260040160405180910390fd5b80547fffffffffffffffffffffffff00000000000000000000000000000000000000001673ffffffffffffffffffffffffffffffffffffffff9290921691909117905550565b611218838383610de8565b73ffffffffffffffffffffffffffffffffffffffff82163b158061130c57506040517f150b7a020000000000000000000000000000000000000000000000000000000080825233600483015273ffffffffffffffffffffffffffffffffffffffff858116602484015260448301849052608060648401526000608484015290919084169063150b7a029060a4016020604051808303816000875af11580156112c4573d6000803e3d6000fd5b505050506040513d601f19601f820116820180604052508101906112e89190613482565b7fffffffff0000000000000000000000000000000000000000000000000000000016145b610c99576040517f08c379a000000000000000000000000000000000000000000000000000000000815260206004820152601060248201527f554e534146455f524543495049454e54000000000000000000000000000000006044820152606401610b2a565b6040517fc0a47c9300000000000000000000000000000000000000000000000000000000815273ffffffffffffffffffffffffffffffffffffffff8681166004830152306024830152851515604483015260ff851660648301526084820184905260a482018390527f0000000000000000000000000000000000000000000000000000000000000000169063c0a47c939060c401600060405180830381600087803b15801561142057600080fd5b505af1158015611434573d6000803e3d6000fd5b505050505050505050565b600086815260036020908152604080832054600a909252822054829173ffffffffffffffffffffffffffffffffffffffff9081169116331480159061149a57503373ffffffffffffffffffffffffffffffffffffffff821614155b156114d1576040517fc821e7f000000000000000000000000000000000000000000000000000000000815260040160405180910390fd5b6000898152600a6020908152604091829020825160c081018452815473ffffffffffffffffffffffffffffffffffffffff90811682526001830154169281019290925260028101546fffffffffffffffffffffffffffffffff8082169484019490945270010000000000000000000000000000000090049092166060820152600382015467ffffffffffffffff8082166080840152680100000000000000009091041660a082015261158290612653565b945050888410156115bf576040517f6a1f509a00000000000000000000000000000000000000000000000000000000815260040160405180910390fd5b888160020160108282829054906101000a90046fffffffffffffffffffffffffffffffff166115ee91906134ce565b92506101000a8154816fffffffffffffffffffffffffffffffff02191690836fffffffffffffffffffffffffffffffff1602179055508173ffffffffffffffffffffffffffffffffffffffff163373ffffffffffffffffffffffffffffffffffffffff16148015611674575073ffffffffffffffffffffffffffffffffffffffff881615155b1561168157879250611685565b8192505b60018101546116ad9073ffffffffffffffffffffffffffffffffffffffff1630858c8b612778565b84158015906116d157503373ffffffffffffffffffffffffffffffffffffffff8316145b1561175d576040517f330df28200000000000000000000000000000000000000000000000000000000815273ffffffffffffffffffffffffffffffffffffffff84169063330df2829061172a9089908990600401613502565b600060405180830381600087803b15801561174457600080fd5b505af1158015611758573d6000803e3d6000fd5b505050505b60018101546040805173ffffffffffffffffffffffffffffffffffffffff92831681528915156020820152918a16918b918d917f8deda66e5f5ef6c43f45734b544b27efe7fe2cd80a4b7fbf5c789aa69c024818910160405180910390a45050965096945050505050565b60075473ffffffffffffffffffffffffffffffffffffffff1633811461184a576040517f08c379a000000000000000000000000000000000000000000000000000000000815260206004820181905260248201527f4f776e61626c653a2063616c6c657220213d2070656e64696e67206f776e65726044820152606401610b2a565b60065460405173ffffffffffffffffffffffffffffffffffffffff8084169216907f8be0079c531659141344cd1fd0a4f28419497f9722a3daafe3b4186f6b6457e090600090a36006805473ffffffffffffffffffffffffffffffffffffffff9092167fffffffffffffffffffffffff0000000000000000000000000000000000000000928316179055600780549091169055565b600082815260036020908152604080832054600a909252822054829173ffffffffffffffffffffffffffffffffffffffff9081169116331480159061193a57503373ffffffffffffffffffffffffffffffffffffffff821614155b15611971576040517fc821e7f000000000000000000000000000000000000000000000000000000000815260040160405180910390fd5b6000858152600a6020908152604091829020825160c081018452815473ffffffffffffffffffffffffffffffffffffffff90811682526001830154169281019290925260028101546fffffffffffffffffffffffffffffffff808216948401949094527001000000000000000000000000000000009004909216606082015260039091015467ffffffffffffffff8082166080840152680100000000000000009091041660a0820152611a2381612653565b6000888152600a60209081526040822080547fffffffffffffffffffffffff0000000000000000000000000000000000000000908116825560018201805490911690556002810192909255600390910180547fffffffffffffffffffffffffffffffff000000000000000000000000000000001690558301519195509350611aae9030848689612778565b611ac381602001513083600001518789612778565b8284877fb76e70514ce71ea8144278de4cb58afc6c323447436371f6fe49e145ffdc540b846020015189604051611b1e92919073ffffffffffffffffffffffffffffffffffffffff9290921682521515602082015260400190565b60405180910390a450509250929050565b600080428767ffffffffffffffff161015611b76576040517fb290253c00000000000000000000000000000000000000000000000000000000815260040160405180910390fd5b8667ffffffffffffffff168667ffffffffffffffff1611611bc3576040517f38af65f700000000000000000000000000000000000000000000000000000000815260040160405180910390fd5b611bd08833308888612914565b905082811015611c0c576040517f3999656700000000000000000000000000000000000000000000000000000000815260040160405180910390fd5b60088054906000611c1c8361354f565b919050559150611c2c8983612ba3565b6040805160c081019091523381526020810173ffffffffffffffffffffffffffffffffffffffff8a1615611c605789611c82565b7f00000000000000000000000000000000000000000000000000000000000000005b73ffffffffffffffffffffffffffffffffffffffff90811682526fffffffffffffffffffffffffffffffff8085166020808501919091526000604080860182905267ffffffffffffffff808f166060808901919091528e82166080988901528a8452600a855292829020885181549088167fffffffffffffffffffffffff0000000000000000000000000000000000000000918216178255948901516001820180549189169190961617909455878201519288015185167001000000000000000000000000000000000292909416919091176002830155938501516003909101805460a090960151831668010000000000000000027fffffffffffffffffffffffffffffffff000000000000000000000000000000009690961691909216179390931790925551908a1690339084907f1a2d760a604c03eaa74e64c0e42f0e4f41824be534853f4c2f3ed42d36fed25c90611e28908d9087908e908e908d9073ffffffffffffffffffffffffffffffffffffffff959095168552602085019390935267ffffffffffffffff91821660408501521660608301521515608082015260a00190565b60405180910390a497509795505050505050565b60018054610a2c9061342e565b33600081815260056020908152604080832073ffffffffffffffffffffffffffffffffffffffff87168085529083529281902080547fffffffffffffffffffffffffffffffffffffffffffffffffffffffffffffff001686151590811790915590519081529192917f17307eab39ab6107e8899845ad3d59bd9653f200f220920489ca2b5937696c31910160405180910390a35050565b60608167ffffffffffffffff811115611efb57611efb613231565b604051908082528060200260200182016040528015611f2e57816020015b6060815260200190600190039081611f195790505b50905060005b8281101561204b5760008030868685818110611f5257611f52613588565b9050602002810190611f6491906135b7565b604051611f72929190613623565b600060405180830381855af49150503d8060008114611fad576040519150601f19603f3d011682016040523d82523d6000602084013e611fb2565b606091505b50915091508161201857604481511015611fcb57600080fd5b60048101905080806020019051810190611fe59190613633565b6040517f08c379a0000000000000000000000000000000000000000000000000000000008152600401610b2a9190612e07565b8084848151811061202b5761202b613588565b6020026020010181905250505080806120439061354f565b915050611f34565b5092915050565b60065473ffffffffffffffffffffffffffffffffffffffff1633146120d3576040517f08c379a000000000000000000000000000000000000000000000000000000000815260206004820181905260248201527f4f776e61626c653a2063616c6c6572206973206e6f7420746865206f776e65726044820152606401610b2a565b600980547fffffffffffffffffffffffff00000000000000000000000000000000000000001673ffffffffffffffffffffffffffffffffffffffff92909216919091179055565b612125848484610de8565b73ffffffffffffffffffffffffffffffffffffffff83163b158061220557506040517f150b7a02000000000000000000000000000000000000000000000000000000008082529073ffffffffffffffffffffffffffffffffffffffff85169063150b7a029061219e9033908990889088906004016136a1565b6020604051808303816000875af11580156121bd573d6000803e3d6000fd5b505050506040513d601f19601f820116820180604052508101906121e19190613482565b7fffffffff0000000000000000000000000000000000000000000000000000000016145b61226b576040517f08c379a000000000000000000000000000000000000000000000000000000000815260206004820152601060248201527f554e534146455f524543495049454e54000000000000000000000000000000006044820152606401610b2a565b50505050565b6009546040517fc981fac40000000000000000000000000000000000000000000000000000000081526004810183905260609173ffffffffffffffffffffffffffffffffffffffff169063c981fac490602401600060405180830381865afa1580156122e1573d6000803e3d6000fd5b505050506040513d6000823e601f3d9081017fffffffffffffffffffffffffffffffffffffffffffffffffffffffffffffffe0168201604052610a199190810190613633565b6000848152600a60205260408120805473ffffffffffffffffffffffffffffffffffffffff163314612385576040517fb2c3aa6b00000000000000000000000000000000000000000000000000000000815260040160405180910390fd5b600181015481546123c49173ffffffffffffffffffffffffffffffffffffffff9081169116306fffffffffffffffffffffffffffffffff891687612914565b600087815260036020818152604080842054815160c081018352875473ffffffffffffffffffffffffffffffffffffffff9081168252600189015481169482019490945260028801546fffffffffffffffffffffffffffffffff80821694830194909452700100000000000000000000000000000000900490921660608301529286015467ffffffffffffffff8082166080840152680100000000000000009091041660a08201529395501691819061247c90612653565b6003860180547fffffffffffffffffffffffffffffffffffffffffffffffff0000000000000000164267ffffffffffffffff161790556002860180546fffffffffffffffffffffffffffffffff169055909250905060006124dd86846136ea565b90506fffffffffffffffffffffffffffffffff811115612529576040517f35278d1200000000000000000000000000000000000000000000000000000000815260040160405180910390fd5b6002850180547fffffffffffffffffffffffffffffffff00000000000000000000000000000000166fffffffffffffffffffffffffffffffff831617905560038501805489919060089061259490849068010000000000000000900467ffffffffffffffff16613702565b92506101000a81548167ffffffffffffffff021916908367ffffffffffffffff1602179055506125ec8560010160009054906101000a900473ffffffffffffffffffffffffffffffffffffffff163086856001612778565b8767ffffffffffffffff16896fffffffffffffffffffffffffffffffff168b7f9e2386766b478abaf84b870cc94441fee88f4a0d3ab18b96e523f193a695f3a18a60405161263e911515815260200190565b60405180910390a45050505050949350505050565b600080826080015167ffffffffffffffff164211612689575050604001516fffffffffffffffffffffffffffffffff1690600090565b428360a0015167ffffffffffffffff16116126cf57826060015183604001516126b29190613725565b6fffffffffffffffffffffffffffffffff16905060009150915091565b60008360800151426126e19190613756565b9050600084608001518560a001516126f99190613756565b67ffffffffffffffff168267ffffffffffffffff16866040015161271d9190613777565b61272791906137af565b90508460600151816127399190613725565b6fffffffffffffffffffffffffffffffff16925080856040015161275d9190613725565b6fffffffffffffffffffffffffffffffff1693505050915091565b801561283b576040517ff18d03cc00000000000000000000000000000000000000000000000000000000815273ffffffffffffffffffffffffffffffffffffffff868116600483015285811660248301528481166044830152606482018490527f0000000000000000000000000000000000000000000000000000000000000000169063f18d03cc90608401600060405180830381600087803b15801561281e57600080fd5b505af1158015612832573d6000803e3d6000fd5b5050505061290d565b6040517f97da6d3000000000000000000000000000000000000000000000000000000000815273ffffffffffffffffffffffffffffffffffffffff86811660048301528581166024830152848116604483015260006064830152608482018490527f000000000000000000000000000000000000000000000000000000000000000016906397da6d309060a40160408051808303816000875af11580156128e6573d6000803e3d6000fd5b505050506040513d601f19601f8201168201806040525081019061290a9190613805565b50505b5050505050565b60008115612a9c576040517fda5139ca00000000000000000000000000000000000000000000000000000000815273ffffffffffffffffffffffffffffffffffffffff878116600483015260248201859052600060448301527f0000000000000000000000000000000000000000000000000000000000000000169063da5139ca90606401602060405180830381865afa1580156129b6573d6000803e3d6000fd5b505050506040513d601f19601f820116820180604052508101906129da9190613829565b6040517ff18d03cc00000000000000000000000000000000000000000000000000000000815273ffffffffffffffffffffffffffffffffffffffff888116600483015287811660248301528681166044830152606482018390529192507f00000000000000000000000000000000000000000000000000000000000000009091169063f18d03cc90608401600060405180830381600087803b158015612a7f57600080fd5b505af1158015612a93573d6000803e3d6000fd5b50505050612b9a565b73ffffffffffffffffffffffffffffffffffffffff7f00000000000000000000000000000000000000000000000000000000000000008116906302b9446c90881615612ae9576000612aeb565b845b6040517fffffffff0000000000000000000000000000000000000000000000000000000060e084901b16815273ffffffffffffffffffffffffffffffffffffffff808b166004830152808a16602483015288166044820152606481018790526000608482015260a401604080518083038185885af1158015612b71573d6000803e3d6000fd5b50505050506040513d601f19601f82011682018060405250810190612b969190613805565b9150505b95945050505050565b73ffffffffffffffffffffffffffffffffffffffff8216612c20576040517f08c379a000000000000000000000000000000000000000000000000000000000815260206004820152601160248201527f494e56414c49445f524543495049454e540000000000000000000000000000006044820152606401610b2a565b60008181526003602052604090205473ffffffffffffffffffffffffffffffffffffffff1615612cac576040517f08c379a000000000000000000000000000000000000000000000000000000000815260206004820152600e60248201527f414c52454144595f4d494e5445440000000000000000000000000000000000006044820152606401610b2a565b73ffffffffffffffffffffffffffffffffffffffff8216600081815260026020908152604080832080546001019055848352600390915280822080547fffffffffffffffffffffffff0000000000000000000000000000000000000000168417905551839291907fddf252ad1be2c89b69c2b068fc378daa952ba7f163c4a11628f55a4df523b3ef908290a45050565b7fffffffff0000000000000000000000000000000000000000000000000000000081168114612d6a57600080fd5b50565b600060208284031215612d7f57600080fd5b8135612d8a81612d3c565b9392505050565b60005b83811015612dac578181015183820152602001612d94565b8381111561226b5750506000910152565b60008151808452612dd5816020860160208601612d91565b601f017fffffffffffffffffffffffffffffffffffffffffffffffffffffffffffffffe0169290920160200192915050565b602081526000612d8a6020830184612dbd565b803573ffffffffffffffffffffffffffffffffffffffff81168114612e3e57600080fd5b919050565b80358015158114612e3e57600080fd5b600080600060608486031215612e6857600080fd5b612e7184612e1a565b9250612e7f60208501612e43565b9150612e8d60408501612e43565b90509250925092565b600060208284031215612ea857600080fd5b5035919050565b60008060408385031215612ec257600080fd5b612ecb83612e1a565b946020939093013593505050565b600080600060608486031215612eee57600080fd5b612ef784612e1a565b9250612f0560208501612e1a565b9150604084013590509250925092565b60008060408385031215612f2857600080fd5b82359150612f3860208401612e1a565b90509250929050565b600080600080600060a08688031215612f5957600080fd5b612f6286612e1a565b9450612f7060208701612e43565b9350604086013560ff81168114612f8657600080fd5b94979396509394606081013594506080013592915050565b60008060008060008060a08789031215612fb757600080fd5b8635955060208701359450612fce60408801612e1a565b9350612fdc60608801612e43565b9250608087013567ffffffffffffffff80821115612ff957600080fd5b818901915089601f83011261300d57600080fd5b81358181111561301c57600080fd5b8a602082850101111561302e57600080fd5b6020830194508093505050509295509295509295565b6000806040838503121561305757600080fd5b82359150612f3860208401612e43565b803567ffffffffffffffff81168114612e3e57600080fd5b600080600080600080600060e0888a03121561309a57600080fd5b6130a388612e1a565b96506130b160208901612e1a565b95506130bf60408901613067565b94506130cd60608901613067565b9350608088013592506130e260a08901612e43565b915060c0880135905092959891949750929550565b60006020828403121561310957600080fd5b612d8a82612e1a565b6000806040838503121561312557600080fd5b61312e83612e1a565b9150612f3860208401612e43565b6000806020838503121561314f57600080fd5b823567ffffffffffffffff8082111561316757600080fd5b818501915085601f83011261317b57600080fd5b81358181111561318a57600080fd5b8660208260051b850101111561319f57600080fd5b60209290920196919550909350505050565b6000602080830181845280855180835260408601915060408160051b870101925083870160005b82811015613224577fffffffffffffffffffffffffffffffffffffffffffffffffffffffffffffffc0888603018452613212858351612dbd565b945092850192908501906001016131d8565b5092979650505050505050565b7f4e487b7100000000000000000000000000000000000000000000000000000000600052604160045260246000fd5b604051601f82017fffffffffffffffffffffffffffffffffffffffffffffffffffffffffffffffe016810167ffffffffffffffff811182821017156132a7576132a7613231565b604052919050565b600067ffffffffffffffff8211156132c9576132c9613231565b50601f017fffffffffffffffffffffffffffffffffffffffffffffffffffffffffffffffe01660200190565b6000806000806080858703121561330b57600080fd5b61331485612e1a565b935061332260208601612e1a565b925060408501359150606085013567ffffffffffffffff81111561334557600080fd5b8501601f8101871361335657600080fd5b8035613369613364826132af565b613260565b81815288602083850101111561337e57600080fd5b8160208401602083013760006020838301015280935050505092959194509250565b600080604083850312156133b357600080fd5b6133bc83612e1a565b9150612f3860208401612e1a565b600080600080608085870312156133e057600080fd5b8435935060208501356fffffffffffffffffffffffffffffffff8116811461340757600080fd5b925061341560408601613067565b915061342360608601612e43565b905092959194509250565b600181811c9082168061344257607f821691505b6020821081141561347c577f4e487b7100000000000000000000000000000000000000000000000000000000600052602260045260246000fd5b50919050565b60006020828403121561349457600080fd5b8151612d8a81612d3c565b7f4e487b7100000000000000000000000000000000000000000000000000000000600052601160045260246000fd5b60006fffffffffffffffffffffffffffffffff8083168185168083038211156134f9576134f961349f565b01949350505050565b60208152816020820152818360408301376000818301604090810191909152601f9092017fffffffffffffffffffffffffffffffffffffffffffffffffffffffffffffffe0160101919050565b60007fffffffffffffffffffffffffffffffffffffffffffffffffffffffffffffffff8214156135815761358161349f565b5060010190565b7f4e487b7100000000000000000000000000000000000000000000000000000000600052603260045260246000fd5b60008083357fffffffffffffffffffffffffffffffffffffffffffffffffffffffffffffffe18436030181126135ec57600080fd5b83018035915067ffffffffffffffff82111561360757600080fd5b60200191503681900382131561361c57600080fd5b9250929050565b8183823760009101908152919050565b60006020828403121561364557600080fd5b815167ffffffffffffffff81111561365c57600080fd5b8201601f8101841361366d57600080fd5b805161367b613364826132af565b81815285602083850101111561369057600080fd5b612b9a826020830160208601612d91565b600073ffffffffffffffffffffffffffffffffffffffff8087168352808616602084015250836040830152608060608301526136e06080830184612dbd565b9695505050505050565b600082198211156136fd576136fd61349f565b500190565b600067ffffffffffffffff8083168185168083038211156134f9576134f961349f565b60006fffffffffffffffffffffffffffffffff8381169083168181101561374e5761374e61349f565b039392505050565b600067ffffffffffffffff8381169083168181101561374e5761374e61349f565b60006fffffffffffffffffffffffffffffffff808316818516818304811182151516156137a6576137a661349f565b02949350505050565b60006fffffffffffffffffffffffffffffffff808416806137f9577f4e487b7100000000000000000000000000000000000000000000000000000000600052601260045260246000fd5b92169190910492915050565b6000806040838503121561381857600080fd5b505080516020909101519092909150565b60006020828403121561383b57600080fd5b505191905056fea2646970667358221220e1088908c7912564c68f56a78677d661e689a1433fd7fa029467bc9bd269af2364736f6c634300080a0033",
  "devdoc": {
    "kind": "dev",
    "methods": {
      "transferOwnership(address,bool,bool)": {
        "params": {
          "direct": "True if `newOwner` should be set immediately. False if `newOwner` needs to use `claimOwnership`.",
          "newOwner": "Address of the new owner.",
          "renounce": "Allows the `newOwner` to be `address(0)` if `direct` and `renounce` is True. Has no effect otherwise."
        }
      }
    },
    "version": 1
  },
  "userdoc": {
    "kind": "user",
    "methods": {
      "claimOwnership()": {
        "notice": "Needs to be called by `pendingOwner` to claim ownership."
      },
      "transferOwnership(address,bool,bool)": {
        "notice": "Transfers ownership to `newOwner`. Either directly or claimable by the new pending owner. Can only be invoked by the current `owner`."
      }
    },
    "version": 1
  },
  "storageLayout": {
    "storage": [
      {
        "astId": 532,
        "contract": "contracts/base/FuroStream.sol:FuroStream",
        "label": "name",
        "offset": 0,
        "slot": "0",
        "type": "t_string_storage"
      },
      {
        "astId": 534,
        "contract": "contracts/base/FuroStream.sol:FuroStream",
        "label": "symbol",
        "offset": 0,
        "slot": "1",
        "type": "t_string_storage"
      },
      {
        "astId": 545,
        "contract": "contracts/base/FuroStream.sol:FuroStream",
        "label": "balanceOf",
        "offset": 0,
        "slot": "2",
        "type": "t_mapping(t_address,t_uint256)"
      },
      {
        "astId": 549,
        "contract": "contracts/base/FuroStream.sol:FuroStream",
        "label": "ownerOf",
        "offset": 0,
        "slot": "3",
        "type": "t_mapping(t_uint256,t_address)"
      },
      {
        "astId": 553,
        "contract": "contracts/base/FuroStream.sol:FuroStream",
        "label": "getApproved",
        "offset": 0,
        "slot": "4",
        "type": "t_mapping(t_uint256,t_address)"
      },
      {
        "astId": 559,
        "contract": "contracts/base/FuroStream.sol:FuroStream",
        "label": "isApprovedForAll",
        "offset": 0,
        "slot": "5",
        "type": "t_mapping(t_address,t_mapping(t_address,t_bool))"
      },
      {
        "astId": 3309,
        "contract": "contracts/base/FuroStream.sol:FuroStream",
        "label": "owner",
        "offset": 0,
        "slot": "6",
        "type": "t_address"
      },
      {
        "astId": 3311,
        "contract": "contracts/base/FuroStream.sol:FuroStream",
        "label": "pendingOwner",
        "offset": 0,
        "slot": "7",
        "type": "t_address"
      },
      {
        "astId": 1039,
        "contract": "contracts/base/FuroStream.sol:FuroStream",
        "label": "streamIds",
        "offset": 0,
        "slot": "8",
        "type": "t_uint256"
      },
      {
        "astId": 1041,
        "contract": "contracts/base/FuroStream.sol:FuroStream",
        "label": "tokenURIFetcher",
        "offset": 0,
        "slot": "9",
        "type": "t_address"
      },
      {
        "astId": 1046,
        "contract": "contracts/base/FuroStream.sol:FuroStream",
        "label": "streams",
        "offset": 0,
        "slot": "10",
        "type": "t_mapping(t_uint256,t_struct(Stream)2886_storage)"
      }
    ],
    "types": {
      "t_address": {
        "encoding": "inplace",
        "label": "address",
        "numberOfBytes": "20"
      },
      "t_bool": {
        "encoding": "inplace",
        "label": "bool",
        "numberOfBytes": "1"
      },
      "t_mapping(t_address,t_bool)": {
        "encoding": "mapping",
        "key": "t_address",
        "label": "mapping(address => bool)",
        "numberOfBytes": "32",
        "value": "t_bool"
      },
      "t_mapping(t_address,t_mapping(t_address,t_bool))": {
        "encoding": "mapping",
        "key": "t_address",
        "label": "mapping(address => mapping(address => bool))",
        "numberOfBytes": "32",
        "value": "t_mapping(t_address,t_bool)"
      },
      "t_mapping(t_address,t_uint256)": {
        "encoding": "mapping",
        "key": "t_address",
        "label": "mapping(address => uint256)",
        "numberOfBytes": "32",
        "value": "t_uint256"
      },
      "t_mapping(t_uint256,t_address)": {
        "encoding": "mapping",
        "key": "t_uint256",
        "label": "mapping(uint256 => address)",
        "numberOfBytes": "32",
        "value": "t_address"
      },
      "t_mapping(t_uint256,t_struct(Stream)2886_storage)": {
        "encoding": "mapping",
        "key": "t_uint256",
        "label": "mapping(uint256 => struct IFuroStream.Stream)",
        "numberOfBytes": "32",
        "value": "t_struct(Stream)2886_storage"
      },
      "t_string_storage": {
        "encoding": "bytes",
        "label": "string",
        "numberOfBytes": "32"
      },
      "t_struct(Stream)2886_storage": {
        "encoding": "inplace",
        "label": "struct IFuroStream.Stream",
        "members": [
          {
            "astId": 2875,
            "contract": "contracts/base/FuroStream.sol:FuroStream",
            "label": "sender",
            "offset": 0,
            "slot": "0",
            "type": "t_address"
          },
          {
            "astId": 2877,
            "contract": "contracts/base/FuroStream.sol:FuroStream",
            "label": "token",
            "offset": 0,
            "slot": "1",
            "type": "t_address"
          },
          {
            "astId": 2879,
            "contract": "contracts/base/FuroStream.sol:FuroStream",
            "label": "depositedShares",
            "offset": 0,
            "slot": "2",
            "type": "t_uint128"
          },
          {
            "astId": 2881,
            "contract": "contracts/base/FuroStream.sol:FuroStream",
            "label": "withdrawnShares",
            "offset": 16,
            "slot": "2",
            "type": "t_uint128"
          },
          {
            "astId": 2883,
            "contract": "contracts/base/FuroStream.sol:FuroStream",
            "label": "startTime",
            "offset": 0,
            "slot": "3",
            "type": "t_uint64"
          },
          {
            "astId": 2885,
            "contract": "contracts/base/FuroStream.sol:FuroStream",
            "label": "endTime",
            "offset": 8,
            "slot": "3",
            "type": "t_uint64"
          }
        ],
        "numberOfBytes": "128"
      },
      "t_uint128": {
        "encoding": "inplace",
        "label": "uint128",
        "numberOfBytes": "16"
      },
      "t_uint256": {
        "encoding": "inplace",
        "label": "uint256",
        "numberOfBytes": "32"
      },
      "t_uint64": {
        "encoding": "inplace",
        "label": "uint64",
        "numberOfBytes": "8"
      }
    }
  }
}